:020000040010EA
:100000004D53545203000000370000000000000070
:100010000300000030000000020000004013000058
:1000200000000000F8D60A00000000004D454E44D4
:1000300052505243D10508000000000003000000A8
:100040000100000000000800000000002400000083
:100050000000000000000000E710CFD0EDAD10D090
:10006000020405031604140000000000D105080076
:100070000204080317031800000000003000080005
:1000800000000000841200000000000000000000DA
:100090008C4B01468C482DE9F04F91F8282000F157
:1000A00010071B78ADF1140D91F829E002F03F0A1A
:1000B0004C699211012B0292CEF3C00E3A685FFA9E
:1000C00094F6CDF80CE05FFAA4F55FFA84FC4FEAF1
:1000D000146414BF96464FEA520E0A88062A00F2AC
:1000E000ED804A688046794B0020D8F8088093421A
:1000F000CDF8048001D8904503D2039F002F00F073
:10010000DB80DFF8CCB18B689B45C0F0D380D1F8A1
:100110000C9040F6FF78CDF80090C845C0F0C8803C
:10012000D1F810905B464B45C0F0C080DFF898B125
:100130009BF80330634500F3B780BCF11E0F00F25B
:10014000B380B34200F3AE801E2E00F2AB80AB4210
:1001500000F3A6801E2D00F2A380A34200F39D8031
:100160001E2C00F29A80B1F91C30DC461C46002C93
:10017000BCF80450B8BF6442A4B2A542C0F28B8060
:10018000B1F91E40A8F1FA05002CB8BF6442A4B230
:10019000A5427ED30D8C022D79D3B5F5005F76D8BC
:1001A0004C8CA64571D3B4F5FA6F6ED391F824C088
:1001B000BCF1040F67DC91F825C0BCF1040F60DCD2
:1001C000BAF1180F5BD3BAF12C0F58D85FEA5A0670
:1001D00055D2404EDDF808C03668B60B02D3BCF1EC
:1001E000020F4CD1029FDDF808C037F0010702D0A2
:1001F000BCF1020F43D109FB03F303EBC3039B18CC
:100200009A4299BF94461E1C9C46161C89784F083A
:1002100006D231490968B14234BF0127071C01E009
:10022000C1F340072D49DDF800E06943B1FBF4F16B
:100230007144494521D82A4CF900671809193D68CD
:100240009D4202D84968994201D2039C9CB19542D3
:1002500002D87968914201D2039F67B1DE46A6EBCE
:100260000C02DDF804C0DEF80C10914201D3B44555
:1002700025D2039F1FBB2E2021E029201FE0342020
:100280001DE033201BE0322019E0312017E0302040
:1002900015E02F2013E02D2011E040F24B100EE06E
:1002A0002C200CE02B200AE02A2008E0282006E081
:1002B000272004E0252002E0242000E0232005B0D0
:1002C000BDE8F08FA04B0008A07C00081CC771544B
:1002D000FFFF07008C000008F08B0008A0860100DB
:1002E000907C00085E4A2DE9F04F38CAADF15C0DF4
:1002F0000AA938C11CCA81E81C00614FD7F85C1BF1
:100300000546012088475749082208A880F70AFABD
:10031000D7F85C1B002088475A4C9DF820609C2031
:10032000DC3C00FB0640D7F8B4380021D0F8DC00F4
:100330000A469847544A0F218DF842100B90237CAF
:10034000128840F2FF11ADF840104FF0010BADF8EC
:10035000362000218DF843B088468DF844808DF812
:1003600045308DF846508DF84780129113AC1391AB
:10037000E94614910AA894E8060089E8060016C820
:1003800002AB16C307C883E80700D7F86848129B7A
:100390001099119A3046A047334C11A8CDF85480DB
:1003A00065680FC889E80F006188207815AAD7F81A
:1003B000647840EA0140109B2946B8470746284622
:1003C000002F0CBFDA46C2461599C0F311026FF335
:1003D0009F41914214BF42465A46DDF854C000F492
:1003E000E0130CF4E011994214BF45465D4600F459
:1003F00000100CF40011814214BF414659461C4BB9
:1004000045EA410E154042EA4E0918682346174C4A
:10041000800A04D317480078012808BF0D406046C1
:1004200059464A469860434600934FF0FF30019387
:10043000B6F796F805EA0A00104909784FF45E729B
:100440000D4B11FB02322568A2F88C9182F8906165
:10045000A2F88E71C2F8945117B0BDE8F08FC04673
:10046000B8120800B07A0008007B0008E00000081D
:10047000501420FFA47A0008B00E0008925800081B
:1004800030C50008684C0008040100082DE9FE4F43
:10049000DFF8788105465E48D8F8A81EB0F900005C
:1004A00088475D4A400013185A4CD8F8601B9E8A52
:1004B000105A1B8D66832083A38301208847D8F8B8
:1004C000481428468847D8F8CC11208B8847544ECA
:1004D0004AF6ED478742534D2BD1D8F8182C608B44
:1004E000A18B9047874224D14C4AD8F8A40241F20C
:1004F000707111808047306840F40030306031689E
:1005000028684FF0010A490C40F400300025706063
:1005100081F00101706801F00101D346894684F839
:100520001EA0400C84F832A080F0010707F00107FC
:1005300014E0306820F4003030603168286820F41E
:100540000030706000257068AB46C1F34049A57764
:100550004FF0010A84F83250C0F340473248D8F8CF
:10056000601B057050468847D8F85C1B504688478A
:10057000D8F874068047D8F85C1B28468847D8F816
:10058000601B28468847D8F8A81D07208847306890
:1005900040F4803030603168A27F47EA0907706814
:1005A000090C012A40F48030706081F0010170680C
:1005B00001F0010141EA07014FEA104080F001001B
:1005C00000F0010747EA010709D029462B464FF002
:1005D000FF3000912A460191B5F7C2FF08E0294695
:1005E0002B464FF0FF3000912A460191B5F7B8FF36
:1005F0000E48D8F8601B80F800A02846884717B13D
:10060000E720B5F7B7FF5846BDE8FE8F30C50008B4
:10061000FA00000810040008BA8900080200000867
:100620002000205524002055D66D0008F16F0008E9
:100630003F494FF47A7008603E494FF4FA70086001
:100640003E491E2008603E483E49C0F83C133E49E2
:10065000C0F864173D49C0F854183D49C0F8E41289
:100660003C49C0F8C4143C49C0F8C0143B49C0F828
:10067000401B3B49C0F8F4133A49C0F8BC1E3A4944
:10068000C0F820163949C0F848163949C0F8E011B9
:100690003849C0F8E4103849C0F83C1F3749C0F861
:1006A00000123749C0F86C123649C0F81C1236499E
:1006B000C0F834163549C0F890103549C0F87C1799
:1006C0003449C0F8BC133449C0F8D0113349C0F8DC
:1006D0005C1F3349C0F848173249C0F86C173249DB
:1006E000C0F85C173149C0F854173149C0F82813D5
:1006F0003049C0F8A8143049C0F8E4152F49C0F8B3
:1007000094192F49C0F8481B2E49C0F838152E49B6
:10071000C0F808122D49C0F834132D49C0F8C8118B
:10072000024900200880044908607047B87F08002B
:10073000D0120800D4120800D812080018000008CF
:1007400030C5000875070800F1100800B10C08005A
:10075000F91108004509080089120800890E0800EF
:10076000890D0800751208001D1108006D110800A0
:10077000C5100800DD0E0800390C0800B90B080090
:1007800091110800F5090800B1120800F50F0800E2
:100790002D04080065100800D91108001D0D08007F
:1007A00049110800A9120800A10A0800350B080029
:1007B0009510080031000800B5110800611208000A
:1007C00099120800350E080031120800491208007D
:1007D000310F0800364A3749F8B5374801231370FE
:1007E00000244C700C71047144718471C4710C70DC
:1007F0001F23937053708FF72DF9304910224A70E0
:100800002F4D0D228A7012230B711322CA70A5F18D
:100810006A000A700F234B711B2221467FF7DBFF12
:10082000A5F16A01814202D09920B5F7A3FE2846BE
:1008300021461B227FF7CFFF854202D09E20B5F7CD
:1008400099FE204B40F2FC7021494FF0B446DFF88E
:1008500084C04FF0AA47204A98630D68604642F66C
:100860008161D66097604FF44556468443F2A017E5
:10087000C183C5F34126878401F1600202841EB959
:10088000986B40F4006098630F48996B40F61E72B5
:10089000DA6304714471C4804433016007C883E89B
:1008A00007000A48447640F22717C781F8BDC046C2
:1008B000FE810008188B0008108B0008DC1208006D
:1008C000DE800008F86D0008C86D000800B200085E
:1008D0008C00000810820008907C00082DE9FC4183
:1008E000DFF8AC80D8F8601B04460120884729480F
:1008F0000068800843D3607810F0070F0CBF002712
:100900006F27207806282ED877BB0428224938BFC5
:10091000091FA37800F00302D2000D6893401D4325
:100920000D6063780D6993401D430D61A178627875
:100930001A4BD8F86C5641B99C21002601FB0031B6
:1009400081F89C6081F89D600EE09C2606FB0036D5
:10095000012386F89C301046A84786F89D00E07871
:1009600086F89E0000E070270D48002302680121F0
:1009700000934FF0FF300193B5F7F2FD00E07127CF
:10098000D8F8601B002088473846BDE8FC81C04687
:1009900030C500081800000808000A558C4B0008F4
:1009A000E00000082DE9F047264CDFF89CA0A146A6
:1009B0000026C8460427032E9AF800000CBF4FF00B
:1009C000FF35012501281BD1B8F90200B8F9002034
:1009D000811A0BB2801A0FFA80FC3BB9B520B5F72B
:1009E000C9FDB9F90020A188002006E0A089A188EE
:1009F000401A000390FBFCF000B25219A08205E0FF
:100A0000B8F90200B4F91420A18940195043C21268
:100A100000EB12507F1EA1EB2031A18304F10204F0
:100A200006F10106C7D1094CD4F87C048047084878
:100A3000D4F8642102210160672000219047BDE8BD
:100A4000F087C046908A00086500000830C500089D
:100A5000286E0008274B2DE9F0478146186890461C
:100A60000C46014601208847234E56F8200C10F012
:100A7000030F02D08C20B5F77DFD3068DFF87CA035
:100A800040F480703060376856F8200C20F0030086
:100A9000DAF8102240F0010046F8200C214656F802
:100AA000205C48469047DAF814028047DAF81822AA
:100AB00041465FFA94F090473068DAF8601B20F402
:100AC0008070306034680020884705F0030585F0A9
:100AD0000105C4F30026380A80F0010000F001008F
:100AE000054356EA050002D0AD20B5F743FDBDE849
:100AF000F087C04690D0000820E8F7FF30C5000816
:100B00000FB4B0B5214C04AFADF1200DB879A0F110
:100B100040011D29A0F180001DD006291BD0052908
:100B200019D0042917D01E2908D00A2901D2062974
:100B300004D809281CBF0025281C0ED1B8781449F8
:100B400001EB80116068CA6941F69C03C31863F326
:100B50001202CA6100E020680025A0603869009098
:100B6000BA8A07F11801019202A810227FF7DAFD74
:100B7000B86A06907968BA68FB683868A4F7C4F95F
:100B800008B0A560BDE8B04004B07047D0120800BE
:100B900000201EFF0FB480B502AFADF1180D3888EC
:100BA000172820D9388820281DD21A480830006814
:100BB000C8B116494FF496720988B1FBF2F30A21C5
:100BC000B0FBF1F202209BB202FB030102FB030027
:100BD000890806294FEA900001D9801F00E0012012
:100BE0000B4909688847394601A810227FF79AFD0A
:100BF000396900680091039A049B0299B0F768F97B
:100C000006B0BDE8804004B07047C046020000084E
:100C100058C60008D012080070B58CF769F917495A
:100C20001348114E114D0978C26B0129114C124B1A
:100C3000C0F8E840C0F8FC303560826301D000BFE6
:100C400008E0114A0F4B0E49C0F81821C0F8EC30EB
:100C5000C0F8E4100F490D4B08680D4A1A6040F4C3
:100C6000C010086070BDC0467C1002A4F0F4F7FF0D
:100C7000A41202A441C80B00262F3331B68A000803
:100C800003208A82030001007F207F50B8590008AA
:100C900085020800BC5800080FB4F0B505AF1A4D26
:100CA00097F82C2004469C20164912FB00F0D5F83A
:100CB000B43897F83020ADF1240D0858002198473A
:100CC000124A3B7901467879616011881843E181C5
:100CD00012D007F11000B0E84C106946A1E84C10A2
:100CE0000DC881E80D0002260796D5F82C5F7968BB
:100CF000BA68FB682046A84709B0BDE8F04004B0D8
:100D00007047C046684C000830C500080401000860
:100D10000FB417481749B0B504AF0478ADF1280DEA
:100D2000B1F90010204600F0A7FA134B3D6907F116
:100D300014011855009538C901AA38C212C907F123
:100D4000280006AB82E8120003C883E80300386B72
:100D5000089097F834000990BA68FB683868796899
:100D600090F7FEFF0AB0BDE8B04004B07047C0463F
:100D7000FD000008300B0008BF88000810B5164CB5
:100D8000D4F8601B01208847D4F85C1B01208847F9
:100D900012480146A0F10C030839021F1B680968BC
:100DA0001268006819430A4310430AD10C480078BE
:100DB00038B90C4940F211100A686FF30B02104366
:100DC0000860D4F85C1B00208847D4F8601B002022
:100DD0008847E06E804710BD30C500082CFEFFFF3D
:100DE000885200086004145208B593F70BFA1348B0
:100DF000202101807521418040F2911181800E4AAD
:100E0000891E01814FF4C773C3806A310182428316
:100E10004FF4967141824FF4C073438141F20C410B
:100E200081824FF4FE7383813E39C1824FF4FC739B
:100E3000C3812531018308BD32F0FFFF908A00088D
:100E40000128F8B50AD04FF0AA454FF445504FF0AD
:100E5000B44442F6816143F2A01207E00C4C43F225
:100E6000F2000A4D00F1600242F63361054F064E72
:100E7000BD60FC60F18301F1600333847084B2844F
:100E8000F8BDC046907C0008108200081CC7715451
:100E90001CC77159B0B5134C071C4FF0000512D098
:100EA000206810F0030F02D0CD20B5F763FB022FAE
:100EB00009D1206A40F480702062206A050A85F01A
:100EC000010505F00105206867F301002060206836
:100ED00000F003007840284302D0DA20B5F74AFB3F
:100EE000B0BDC04600E8F7FF10B5114CD4F894141B
:100EF0006FF39F3189B219B90E490020087010BDF7
:100F0000AEF750FCD4F888040A23D4F87C24C0F34C
:100F1000CA31A1F2062191FBF3F16FF3DF2212B285
:100F2000A2F2062292FBF3F0034C2180608010BDF8
:100F300000000E5365000008908A0008F8B591F78C
:100F400041FD104FD7F85C1B012088470E48002652
:100F500046618661012400940521D7F87C5133460F
:100F60000A4A3320A84700942F20D7F87C41062155
:100F7000D7F830233346A047D7F85C1B3046884764
:100F8000F8BDC04630C500082CB900083110080073
:100F90000FB4B0B5104C04AFADF1080D7D7B022D40
:100FA00004D1206840F48070206020683869009087
:100FB000387D01907968BA68FB683868B2F76CF8D8
:100FC000022D04D1216821F480712160216802B0D2
:100FD000BDE8B04004B0704720E8F7FF0D4A98B56F
:100FE000838A126803F00104520906D25A0834BFFA
:100FF0004FF0B442064A054B1A60ACF783F8071C61
:1010000002D12046FFF71CFF384698BDA87C000897
:101010001CC771598C00000898B50B4B426802F050
:1010200001041B685B0906D2520834BF4FF0B4427A
:10103000074A064B1A609AF72DF8071C02D1204682
:10104000FFF7FEFE384698BD8C000008A87C00081B
:101050001CC7715908B57FF7D7FE0A4800780128E8
:1010600019BF0020021C01200322074909680B4612
:1010700040EA420042060020044942F00702984735
:1010800008BDC0460700000868C50008C7E97BFE28
:101090000A49088880EAA00280EA620280EAA20285
:1010A000401040EAC23083B2054A03F03F003F38A7
:1010B00000040B8040F00A0010607047E412080042
:1010C000C0F4F7FF10B50C4690F7F0FC0749095D36
:1010D000012901D100BF10BD054A1C2014FB0022CC
:1010E000002082F8441082F83A0010BDFC8100080C
:1010F0001004000810B50A4C226803462068C2F3A9
:1011000008029B1A5B18C0F3084099B2801A401C71
:1011100083B291FBF3F05843091A521890B210BDF4
:1011200008F4F7FF10B5A7F713FB044C044B054870
:10113000054A064923600262816210BD4C850008A1
:101140007D080800AC870008B90F08007D0F080073
:10115000074910B5044607480B78B0F90010184647
:1011600000F08AF80449C85420468CF769F910BD8C
:10117000FD0000085001000813B2000808B581F70F
:1011800079FD07480078012808D1064A0720116830
:101190006FF30A0142F8401B401EF8D108BDC0465B
:1011A0000E5200082C201EFF1CB5049C0094A1F7D1
:1011B0000BF854B1B4F9020040F2FF71814204D03F
:1011C00010F5006F1CBF1A3860801CBD08B583F78E
:1011D0002DFD064A072011686FF30A0141F0FA015C
:1011E00042F8401B401EF6D108BDC0462C201EFF11
:1011F00038B505460C4685F77BFF054800EB8510A2
:10120000A168C269491E61F31202C26138BDC046BD
:1012100000201EFF10B5074A83889C215943545C67
:101220009FF7C2F84228C4F3C00104BF012900207F
:1012300010BDC046114C000810B5B0F733FB05498E
:1012400009680446884702490880204610BDC04608
:10125000B87F0800A4CC000808B591F739FF044A0C
:1012600004480721117045F66F11018008BDC04682
:10127000A0550008E412080000220029C8BF01227E
:10128000024902EB42021018085C7047DC120800A9
:1012900008B59EF717FA0349086820F480700860C3
:1012A000086808BD20E8F7FF08B582F72FFF03495B
:1012B000086820F480700860086808BD20E8F7FF1F
:1012C00038B5034D6C68A2F759FF6C6038BDC04655
:1012D00008B80008034A02EB8012D06A61F310409C
:1012E000D062704700201EFF024906200870A0F758
:1012F00063BCC046E58B00080248001D0021016068
:101300009EF734BD08B80008143189B2A9F742BC71
:1013100000BF7047B812080000000000180000006D
:1013200000000000000000000000000000000000BD
:1013300000000000000000000000000000000000AD
:1013400052505243000080000000000009000000DD
:10135000010000000000800000000000A00000006C
:1013600000000000000000002A42CE07EA4180078A
:10137000F209BF072A3C6807EA4100075AA30002A6
:10138000A2031009A203100A120E00104602BA06A8
:101390002800ADD1E80CC4D1100C00C00000000042
:1013A00062130CD0008040E0624181012800AD0151
:1013B000E80CC4010000000062130C006281860189
:1013C0002880F501680CC40158A3040262130C00C4
:1013D00062818301E200180000800000000000002C
:1013E00000000000000000002A20800FEA0CC40F5B
:1013F00062037C00008000002AF0B50FEA0CC40FE5
:1014000062037C0000800000A0BA8200000000009F
:10141000E481000000000000000000004CB462BF46
:10142000E37C47BF79452CBF0F0E11BF4CADEBBE1F
:10143000783EB5BE14E493BE5F1365BE965E22BED1
:101440009953BFBD1BA8E7BCDF1D5ABF9AA83FBF79
:10145000553325BF10BE0ABF9591E0BE0BA7ABBEAA
:1014600091C88ABE2ED453BE391712BE8AB4A0BD0D
:1014700008D569BC718751BF51D437BF30211EBF19
:10148000106E04BFDF75D5BE9E0FA2BE0EAD81BE2D
:10149000FD9442BEDDCF01BE7B1582BD3E3B8BB9C4
:1014A00004F148BF080030BF0C0F17BF213CFCBE41
:1014B000295ACABE317898BE172371BECC5531BEA9
:1014C0000211E3BDD7EC46BD5421613C965A40BFA2
:1014D000BF2B28BFE8FC0FBF219CEFBE733EBFBEF1
:1014E000C4E08EBE12EC5EBE9B1620BE4982C2BD19
:1014F000B9AE09BD414EE33C29C437BF765720BF82
:10150000C3EA08BF22FCE2BEBC22B4BE574985BE76
:101510000CB54CBE6AD70EBE91F3A1BD36E198BCA6
:10152000EC052B3DBB2D2FBF2D8318BF9FD801BFCE
:10153000225CD6BE0607A9BED46377BE067E3ABE3D
:101540007330FBBDD96481BDCA2773BBB864643DE9
:101550004E9726BFE4AE10BFF68CF5BE23BCC9BEC5
:1015600050EB9DBEF93464BE014728BE11B2D8BD10
:1015700040AC41BD872E383CC2E18E3DE0001EBF2D
:101580009BDA08BFAD68E7BE231CBDBE99CF92BEF3
:101590001F0651BEFB0F16BEAF33B6BDCF8E00BDCA
:1015A0008093D63C2791AB3D736A15BF530601BFAC
:1015B0006444D9BE247CB0BEE3B387BE45D73DBEEC
:1015C000F6D803BE4DB593BD79C57DBCDE87283DF9
:1015D0008D40C83D05D40CBF1364F2BE1C20CBBEA9
:1015E00024DCA3BE5A3079BE6BA82ABEE043E3BD1B
:1015F000D76D62BD5109D639FCC5653DF3EFE43DB9
:10160000983D04BF81BBE2BED3FBBCBE253C97BE68
:10161000EDF862BE907917BED5D5BEBD14711DBD63
:101620000793853C0D82913DACCF003E554EF7BEF1
:10163000F012D3BE8AD7AEBE259C8ABE80C14CBEF6
:10164000B64A04BECA679ABDA0E8B0BCF4E6033D42
:101650001C21B03D5F270F3E7A21E6BE5E6AC3BE05
:1016600042B3A0BE4CF87BBE148A36BEB837E2BD8A
:101670007EF36BBD63BC9BBB6504453D2CC0CE3D7A
:10168000127F1D3E9FF4D4BECCC1B3BEF98E92BE74
:101690004DB862BEA75220BE03DABBBD681723BD9A
:1016A000DD14463CEB10833D3B5FED3DC5D62B3E44
:1016B000C4C7C3BE3A19A4BEB16A84BE4E7849BE3F
:1016C0003B1B0ABE4F7C95BDA376B4BCF603ED3C34
:1016D000A49FA33D25FF053E782E3A3EE99AB2BE6F
:1016E000A87094BED08C6CBE4F3830BE9CC7E7BD8E
:1016F000353D5EBDDAF98ABBBE7E3B3D5C2EC43D06
:10170000AC4E153E2B86483E0E6EA1BE17C884BE59
:101710003F4450BE50F816BEC358BBBDCC8111BD6E
:101720006CF35D3CC13D803D15BDE43D349E243EDF
:10173000DEDD563E334190BE0A3F6ABEADFB33BE8E
:10174000A270FBBDEAE98EBDC68C89BCF158003D94
:1017500023BCA23DE6A5023EBCED333E9135653E7D
:10176000B0287EBEE6ED4ABE1CB317BEA4F0C8BDCD
:1017700022F644BDBBA0FE3A0835493D853AC53D39
:1017800043ED123E433D433E448D733EFACE5BBE75
:10179000C29C2BBE16D5F6BDA77096BDDE30D8BC58
:1017A000DE60A93C8F08893DE6B8E73D9F34233EC3
:1017B000CB8C523E7BF2803E415B4EBE04561EBE39
:1017C0008CA1DCBD212E79BDAD6464BCCBFB063D94
:1017D000EDC4A03DF40BFE3D7DA92D3E014D5C3EC8
:1017E0004278853E13736FBEFC723FBEE5720FBE3A
:1017F0009DE5BEBDDECA3DBD405F0D3A9B4E6B3DD3
:10180000DC33EA3D35602F3E7DA6693E62F6913EAF
:10181000085F9FBED2FB84BE363155BEC86A20BE6B
:10182000B548D7BDB5775BBDE5FF223CD47B963D7F
:10183000D54B0C3EC1594D3ED633873E8905ACBED3
:10184000852C90BE02A768BEFAF430BEE485F2BDD6
:10185000D42183BD9DCA23BC5A5E343DAED7C83D5A
:1018600017C01B3E5714533E3E3CA3BEF52188BE15
:10187000580F5ABEC6DA23BE694CDBBD8BC65DBDB0
:101880009B685FBB77D9413DBCD4C83D5E5E183EC6
:101890005F524C3E54DA97BEDF2F7ABE15AB44BE82
:1018A0004B260FBE0343B3BDDF7210BD993E653CAE
:1018B0001689813D586AE63DCEA5253E6F16583EF5
:1018C0008F558EBE990468BE155E33BE216FFDBD77
:1018D000192294BD4054ABBCFBBFDC3C0D35993D97
:1018E0001C3AFB3D959F2E3E1DA25F3E71F48ABEC1
:1018F000A37464BE650033BE268C01BECF2FA0BD8D
:10190000451DF5BCC9E46C3C0701713D6E64D33DD7
:101910002C24173E2196443EADF2A5BEB9778ABE6F
:101920008AF95DBEA30327BE761BE0BD4C5F64BD94
:101930003A2BF9BB7D14263D31A7B53D11220C3E53
:101940008A703D3E50E4ABBED09590BEA08E6ABE7C
:10195000A0F133BE40A9FABD416F8DBDDE6CC0BCA5
:1019600048E3B43CDB8C8A3DE4E0E73D779A223ED5
:101970005D37ACBE627C90BECB8269BED30C32BEFA
:10198000B72DF5BDC84186BDC40895BC97F5EE3CA2
:10199000FDBC9C3D93BCFD3D155E2F3E23E8ADBED6
:1019A000F1E390BE80BF67BE1DB72DBE735DE7BD7E
:1019B0005A9966BDF45100BC6070263D9E7AB63DD2
:1019C00086DE0C3EBE7F3E3EED40ADBE33D08FBEC8
:1019D000F1BE64BE7CDD29BE0DF8DDBD456A50BD9B
:1019E000369E10BB7F563E3D70DBC23DD145133E57
:1019F000E91D453ECC41AABE81678CBE6C1A5DBE16
:101A0000D56521BE7E62CBBDA2F227BD483F633BB8
:101A10008B5A443D9140BD3DEE290C3E94B3393E76
:101A2000A6B8A4BEF7EB86BE913E52BE34A516BE44
:101A3000AD17B6BDC993FBBC079A823CF631803D19
:101A400069BDDF3D6FA41F3E296A4F3EDB9898BEFB
:101A50006E8078BE26CF3FBEDF1D07BE2ED99CBD4F
:101A600078DAADBC31EDA73C6DDA7E3D21DFD43DA7
:101A70008528153E7BE13F3EB73C8BBE10A362BE7E
:101A8000B3CC2EBEACECF5BDF23F8EBDDE4C9ABCA5
:101A900056D2D03C63FC8E3D30C4E93DFE45223E2B
:101AA000E5A94F3E857C86BE6C7F5ABED00528BE18
:101AB0006618EBBD2C2586BDC9C784BC08F6E13C81
:101AC000F62C923D6ADCEB3DEFC5223EA99D4F3ED0
:101AD000EE3787BEF3C959BE0A2425BE43FCE0BDDC
:101AE000E3606FBDFD49E6BBF507153D956CA33D71
:101AF0002F55FC3DE49E2A3E3213573EA5686ABE30
:101B0000F1363CBE3D050EBE11A7BFBD538746BD95
:101B100025085CBBFA70423D3C51C93DFDB4183EFE
:101B20005CC14C3EDE66803E983E69BEADFB3ABE6F
:101B3000C1B80CBEABEBBCBDA7CB40BD1FFFF7BA15
:101B4000ADA2543DAA82D83DFE59233EA8725A3E0A
:101B5000A9C5883E827C6CBE1D573CBEB8310CBE08
:101B6000A618B8BDB79B2FBDE5CE873B545E5A3D46
:101B700065E1D13DD0491B3EEEA24D3E0CFC7F3EBF
:101B800067BE54BEA7A529BED019FDBD50E8A6BDAD
:101B9000A16D21BDDE552F3BC9045D3D1A8AD73D9D
:101BA000E848203EC3CC543E4FA8843EAF945CBE70
:101BB00006792FBE5D5D02BE6983AABD2E9820BD49
:101BC000ADB39E3B888D603D4EA2D63DEB7E1E3E62
:101BD000B0AC513E3A6D823ED7AE67BECB4339BE04
:101BE000C0D80ABE68DBB8BDA30A38BD7CC5D039F1
:101BF00053E8603D8E17E03D79DD273E2BAF5F3E19
:101C00006FC08B3EBF0B74BEC55043BECA9512BE9B
:101C10009EB5C3BD527F44BD65B3C9B97904433D88
:101C20002CCEC33D0E0D133E0633443EFE58753E8A
:101C300055DB6DBE1B9B3FBEE25A11BE5035C6BD83
:101C4000BA6953BDA046D3BB4C41343DB675C13DC6
:101C50006365143EEB0F483E73BA7B3E991B5ABE38
:101C60006FB930BE455707BE36EABBBDC44B52BD47
:101C70006E0C33BCC546413D52A8D73DA156273E08
:101C800019D9623EC92D8F3E14CE7EBEB3114EBE11
:101C900053551DBEE531D9BD47726FBD170332BC28
:101CA00071DE183DD31EAF3D37E7083E053F3A3E93
:101CB000D2966B3E50E784BEC8C456BEF0BA23BE6F
:101CC0003062E1BD019D76BD82D629BCEDC80B3DD9
:101CD000BD03A13D0423FC3D26A12B3EC930593E46
:101CE000D20D8EBE16FA65BE87D82FBEF16DF3BD3C
:101CF000D42A87BDB83D57BC9E83193D556BB43D72
:101D00006E0A0E3E31DF413EF4B3753E8B3989BE1B
:101D1000D2EB5DBE8E6429BE94BAE9BD0CAC80BD29
:101D20001BEC3CBCC588253D4926BD3D17C4133E70
:101D30000BF5483EFE257E3E14E38DBE832F64BE28
:101D4000DD982CBE6D04EABD43AE75BD559DBABB92
:101D50009ADB4B3D7085D73D898E243E5A5A5D3EB5
:101D600016138B3ECDA978BEA5C146BE7ED914BE42
:101D7000ACE2C5BDBA2444BD3FF95E3AE4B07B3D58
:101D8000F2F2F93DB9063B3EF813793E9C909B3E3A
:101D900037997FBE197D4ABEFC6015BEBC89C0BDA7
:101DA00001A32CBDD4351F3CBAFF823DBA18F23DC9
:101DB000DD98303E5D25683EEED88F3E66628ABE75
:101DC00058FF5ABEE53921BEE3E8CEBDF8BB36BDAB
:101DD0005567413CF087873DF5E2F63DFD1E333EF9
:101DE00080CC6A3E013D913E532A83BE963F4EBE53
:101DF000872A16BEF02ABCBDA30118BD35A5903CAC
:101E0000110C823DD5EEDF3DCCE81E3E2EDA4D3E74
:101E100090CB7C3E311988BE9E4F56BEDA6C1CBEFC
:101E20002B14C5BD459D22BD96DB893CEA43713D1F
:101E300004CDCE3D0A7C123E91913D3E19A7683EED
:101E4000EB0981BE75CB4ABE138313BE6375B8BD63
:101E500040C913BD8EB0923C13D6693DF029C53DF3
:101E60006BB40A3EDED3323E51F35A3EB57781BEA3
:101E70007D884BBE902114BE4575B9BDD64E15BDAB
:101E8000BD99903CB44D883DF874EC3D1E4E283E03
:101E9000C1615A3EB23A863E1BBA78BE637944BEEF
:101EA000AC3810BEE9EFB7BDF4DC1EBDA697483CC8
:101EB0003944893D7E75F93D61D3343E04EC6C3E76
:101EC0005382923ECBD75CBE22382EBEF330FFBD8C
:101ED000A2F1A1BDA36409BDFA67443C52C58A3D85
:101EE000A5FDFC3DFC9A373E26B7703EA8E9943E1E
:101EF00009E64DBE8C1422BE1E86ECBD24E394BDC3
:101F0000A600F5BC8416533C3FE77B3D6F84E13D62
:101F10009F8A223E0753543EB70D833E078648BE34
:101F20001C4A1DBE621CE4BD8CA48DBDD8B2DCBCB5
:101F300002597A3C3CC1823D5837E63DBAD6243E30
:101F4000C891563E6B26843E30FA39BEAA0E11BEA9
:101F50004846D0BD7ADE7CBDC560B2BC68FB943C0F
:101F6000E28F8B3DE9E0F13DF9182C3E7C415F3E6C
:101F70000035893EDB584DBE58921FBEA897E3BD81
:101F8000A10A88BD67F6B1BCB63DBC3CE12E9C3DC4
:101F90002AA7043EE4363B3E9EC6713E2C2B943E5F
:101FA0009BED52BE68D424BE6876EDBD014491BD60
:101FB0006946D4BC34839C3C17D3963DB142033E62
:101FC000D61B3B3EFBF4723E1067953E6CB364BE7D
:101FD000F45034BE7BEE03BE0418A7BD26A60CBD8C
:101FE000F48E533C0E91773D301FDD3DEC3A1F3EA1
:101FF00041E64F3ECA48803EA6017DBE737149BE90
:1020000040E115BE1BA2C4BD6A033BBD0EEB993B6C
:1020100081064F3DD067C53D30A6113E7798403EC2
:10202000BF8A6F3E9ABA7BBEF18249BE474B17BE4C
:102030003B27CABDD16F4BBDB14A24BAEF63483DBF
:1020400084ACC93D8893173ECF504A3E150E7D3E65
:102050009F9E7FBED69A4DBE0C971BBE8626D3BDD3
:10206000E63D5EBD0176B1BBD58F333D35A7BE3DA4
:1020700040C3113EE532443E8AA2763EACC88CBED7
:10208000750063BE906F2CBE58BDEBBD1F377DBD84
:1020900036CE0BBC26981E3DED11B03DE36B083EDD
:1020A000D0CE383EBD31693EE61896BEE7F771BE28
:1020B00001BE37BE3508FBBD699486BDEA0411BC7C
:1020C000B198193D4EB9AB3D2253053E9DC9343EF2
:1020D0001840643E80E090BE4A0868BE934F2EBE12
:1020E000B92DE9BD98786BBDC7B792BA9EEE453D54
:1020F0007D39C83DD6BD163EED5E493E04007C3EAE
:10210000B14B83BE65A250BE67AD1ABED370C9BDC8
:10211000B10D3BBD2732E63B0E00733DEB9CE43D29
:10212000E8DC273E5A6B5D3EE67C893E84936BBEBD
:10213000222E39BEC1C806BEC0C6A8BDFCF707BD69
:10214000113B833CEA31883D0F95EF3D1B7C2B3ED4
:10215000AD2D5F3EA06F893EE6CD78BEADB543BEE6
:10216000759D0EBE780AB3BD0DB411BDAB59853C4B
:1021700091DA883DB75EF03D6FF12B3E82B35F3E52
:10218000CBBA893E7A017BBE732B47BE6C5513BE1A
:10219000CAFEBEBD79A52EBD8CCA023CEA0E793DB1
:1021A00098B5E83DDE712A3EEF88603E01508B3ED7
:1021B000BA1881BE70254EBE6C191ABECF1ACCBD9E
:1021C0008B0548BD6DA8023BDB593D3D9844B93DA8
:1021D00021EE093EF639373ECB85643EB87480BEA9
:1021E0005E394EBE4C891BBE72B2D1BD9AA458BD99
:1021F000F2445EBB333F163D5A319D3D1B43EF3DDC
:102200006EAA203E4FB3493EC9CB8CBE501862BE69
:102210000E992ABE9833E6BD286A6EBD006983BB5D
:1022200060FA253DF030AE3D58B2043E384C323EA7
:1022300018E65F3EC79383BEF63155BE5E3C23BEB3
:102240008B8DE2BDB3447DBD44B955BC976E153D41
:10225000BF25B03D19CA0A3E53813D3E8D38703EC0
:10226000B0828CBECECA63BE3B902EBE50ABF2BDD8
:102270002A3688BD24086EBC054D133D090EB13DBC
:10228000C83A0C3E8BEE3F3E4FA2733ECE7F83BEDC
:10229000C20355BEE80723BE1D18E2BDD3407CBD76
:1022A000B34551BC0B97153DC2BFAF3DFF590A3E28
:1022B0001DD43C3E3B4E6F3E06CD86BE29A957BE7F
:1022C00046B821BEC68ED7BD025A57BDB611D33807
:1022D0003948483D7413C83D6601163E12F9473E21
:1022E000BEF0793ED25A8ABEF6185BBE487C21BE4B
:1022F00035BFCFBDB30B39BD129C353C3B78803D1B
:10230000F43CEA3DD7002A3E33E35E3EC8E2893E14
:10231000F0DB8BBE4BE25BBEB70C20BE476EC8BD88
:102320003F8621BD22A09B3C4F5F873D95D6E73D70
:10233000EE26243E9162543E1A4F823E61D186BE03
:10234000862453BE4BA618BE2050BCBD52A70EBD5E
:1023500035A3B63C8E188C3D4F88EA3D087C243E60
:10236000E8B3533EE475813ED6C185BEF77651BED3
:10237000446A17BE20BBBABD71430DBDBBDEB53C80
:102380004CB1863DEAEADF3D44921C3E132F493EA4
:10239000E1CB753EE3DF82BE23704DBE802015BECB
:1023A000BAA1B9BDE90412BD45739E3C4EE9833D17
:1023B000CA35E03D24411E3E62674C3EA08D7A3E08
:1023C000632F73BE6A7B3FBE72C70BBEF326B0BDE0
:1023D000047E11BD7847753C6CEB8A3DE92DF73DD5
:1023E00033B8313E71D9673E58FD8E3EFFEA6ABE72
:1023F0008C8F38BE183406BE4AB1A7BDC6F405BDE1
:102400000FF2863C4EBF903D19C2FF3D7262373ECF
:10241000D8E36E3E9E32933EF6147ABED11845BE86
:10242000AC1C10BE0E41B6BD899118BD277C6D3C19
:102430004043923D7D6B033E5AB53D3E38FF773EAB
:102440008A24993ECE2487BED70554BE12C219BE37
:1024500099FCBEBD1BEA14BDF749A83CEDE3923DD3
:102460005DB5FB3D6643323E1EAC663E6B8A8D3EDB
:1024700049127EBE885B45BEC8A40CBE10DCA7BD59
:1024800041BAD9BCC0FBEB3C099B9B3D2137FC3DCD
:102490009D692E3EA9B75E3EDB82873EE7C580BEC2
:1024A0000DD147BE4D160EBE1AB7A8BD6706D5BCE6
:1024B0009ACFF83C4A8D9C3DADE6FA3D08A02C3EF3
:1024C000BACC5B3EB67C853E8B9B81BE03A849BEE1
:1024D000EE1810BEB413ADBD2BD6E7BC78A2E43C19
:1024E000638CA93D14F80C3EF629453ED85B7D3E31
:1024F000DDC69A3EEC097BBECF9642BEB1230ABE32
:102500002661A3BDACEBC9BC42ADF93C6C94B03DB7
:10251000C45E113E52734A3EF0C3813E374E9E3E2A
:10252000E55D6BBE251935BEC8A8FDBD461F91BD32
:10253000135792BC79E70F3D7B05BA3D9D0B163EC4
:102540007C144F3EAE0E843E1D93A03E94D277BEC7
:10255000A4953FBEB55807BE89379EBDA7F6B6BC49
:102560006C78053D542AA43D39CC023E4883333E65
:10257000573A643EB3788A3E42A284BEEE5250BEC1
:10258000576117BE81DFBCBDA8F815BD659B9B3C9C
:10259000396B813D99EFDB3DFD391B3E2D7C483E7B
:1025A0005DBE753E4C5286BE27CA55BEB6EF1EBEF6
:1025B0008B2AD0BD52EB44BD87F3B33BC23E4E3DA8
:1025C00089FFC23DD96F0F3EED5F3D3E01506B3E2E
:1025D0008CC389BE64945ABEB0A121BEF85DD1BD42
:1025E00021F13EBDBA66133C2FC74F3D575ABD3D42
:1025F0008C68093EEC23343E4CDF5E3EFD0784BE12
:1026000045EF51BE90CE1BBEB65BCBBD99343EBDEF
:10261000D371D23B6B12573D4EEBC93DB326143EEE
:10262000BF57433ECB88723E3EC97FBE89724BBEC8
:10263000D31B17BE3A8AC5BD9DB939BDD309BD3B71
:10264000ECD45D3D4F04D23D148F1A3E001C4C3E2D
:10265000EDA87D3ECF737BBED05E48BED24915BE8D
:10266000A769C4BD547F3CBD604A7D3B435E4C3D81
:10267000F073C43D5F5C113EC77E403E2EA16F3EAD
:10268000028178BE577546BEAC6914BE02BCC4BD9B
:10269000584941BD91AADC3ACC85413D2213BE3D4B
:1026A000AFB10D3ECD593C3EEB016B3EF84E84BEC2
:1026B000B88152BE81651CBE9292CCBD46B440BD6D
:1026C000C3E4BD3B2F96583DE3B7CC3D5792163E31
:1026D000BDC8463E22FF763ED0E981BE65874EBE2C
:1026E000283B19BED7DDC7BDBD8A3ABDA631D53B53
:1026F00021BC693D0769DC3DFFF9213E7ABF553EAB
:102700007AC2843E66CA65BEF24137BE7DB908BE54
:102710001262B4BD52A22EBDF7F7373B178E743D3F
:1027200057CEEE3DD2AA313E78EE6B3E0F19933E66
:1027300027C96EBE26E63EBE26030FBE4B40BEBD79
:1027400095F43CBD09DB253A345F733D7D13F23DC2
:10275000B13B353EA26D713ECACF963ED5EC84BEEC
:10276000A86954BEA7F91EBE4A13D3BD8E6650BDDC
:10277000032FAB3A38DF6A3D7C32E83DAE7A2D3E1E
:102780001EDC663EC71E903E5DC284BEE1AC53BEF9
:1027900009D51DBE5FFACFBD5C9548BD79A06C3BE5
:1027A0004C68773D4803F03D3529323EC6506C3EBB
:1027B0002C3C933ECDFF8EBE5B8F62BE1D1F27BE9D
:1027C000BD5DD7BD80FA40BDE519333CEEFF783DD5
:1027D000B29CE23DB65C243E146B573EB83C853E4D
:1027E00059B295BE33AD6BBEB5F52BBE6F7CD8BD6F
:1027F000E51A32BD2486993C6F5E8A3D555BEE3DFD
:102800001D2C293E902A5B3E8294863EB29392BE56
:10281000A7CA65BEE96D26BE5722CEBDB7D11EBD83
:102820007F42BD3C43D3893DE655E43D456C1F3EA8
:1028300096AD4C3EE8EE793EE54B8FBE125060BE41
:102840005B0822BE4981C7BDB6E315BD4A76C63CCA
:1028500021C1933DB0E4F53D1F042C3EE7155D3EDC
:10286000D713873EE16E70BEFF5B3ABE1C4904BEC3
:10287000746C9CBDBF1AC1BC537CEF3C3FFEAF3DA6
:10288000B50E123E4A1E4C3EF016833EBA1EA03EC6
:10289000BB535EBEA2E92ABE14FFEEBDE22A88BD8C
:1028A000C55A85BC00FB0A3DC0DDB93D001F173E7F
:1028B000204F513EA0BF853EB0D7A23E8E6A59BE82
:1028C000ABF228BE91F5F0BDCB0590BD1558BCBC50
:1028D0000267C73CC821A13DE834083EEBD83F3E23
:1028E000EF7C773E7990973EA0B06EBE22723BBEE1
:1028F000A43308BE4DEAA9BDA1DA06BDAE3E8C3CAC
:102900003238863DB960E93DA044263EE3D8573EC3
:1029100093B6843E8FBF7ABEA7D945BEC0F310BE22
:10292000B01BB8BDC29F1CBD6FDF5B3C10F4743D93
:102930002278D93D1E3B1C3E2BBA4B3E39397B3E9B
:1029400036DE68BECF0E38BE673F07BE00E0ACBDC6
:10295000628216BDEBEC323CFB216F3D5EC4D83D7C
:10296000DFFB1C3E8F954D3E3F2F7E3E84D45EBEE6
:102970001DBB30BEB7A102BEA010A9BDA5BB19BD2D
:10298000AF4FF53B109F6E3D164ADF3D51A2233EEF
:10299000989F573E6FCE853EA20A71BE9CDA3FBE1D
:1029A00097AA0EBE23F5BABD312A31BD2AAF9C3B92
:1029B000A166673DAE9BDD3D06C2233E35B6583E5F
:1029C00032D5863E095362BE4E2235BE93F107BE14
:1029D000B181B5BD774036BDC2C5BEB9D4A8583D9A
:1029E0009A67D93D653D233EFDC6593E4A28883E3B
:1029F00014A06DBE89FB3EBEFF5610BEE964C3BD88
:102A0000A8374CBDF02B8DBBBD52503D7C25D93D28
:102A1000CD10253EDC8E5D3E75068B3E923989BE1B
:102A200083615CBEE24F26BE827CE0BD80B268BDA1
:102A3000E55F83BB0CD32F3D0A09B83D47140C3E1C
:102A400009243C3ECB336C3E030389BE91D85DBE66
:102A50001BAB29BE4BFBEABD5FA082BD9E2B52BCC7
:102A600079F8183DED3DB33DCFFF0C3EA760403EE9
:102A70007FC1733EF5E78CBE26BE63BE61AC2DBE42
:102A80003935EFBDAF1183BD2E7137BC34B6293D4A
:102A90005AA4C03DCD36163E6D1B4C3E0600813E0D
:102AA00008E486BE871459BEFE6024BEEB5ADFBD23
:102AB000B2E76BBD70CCC8BB40D1583D075EE53D69
:102AC000B7292F3E6AA46B3E8F0F943EB1D38FBEC1
:102AD0001ACF65BED1F62BBE123DE4BD021961BD11
:102AE000E803C93AAEC0743D9E9CF13D736C343E20
:102AF000970A703E5DD4953EAAAD96BEF37A71BE3C
:102B0000929A35BE6274F3BD3F6777BD49B7FCBA90
:102B10002AA8583D079BDC3DFD70263E76945E3E1C
:102B2000F85B8B3E66D094BE644470BEFBE736BE55
:102B30002617FBBD555E88BD262C2DBC5261393D44
:102B4000D706CF3D82AE203E99D9593E5882893E64
:102B50007D358FBE36F867BE728531BE5D25F6BD08
:102B6000D53F89BD6AD262BCB8F31C3D054EB93D64
:102B70001711123E2C7B473E40E57C3EC81F98BE95
:102B8000967A74BE9BB538BE40E1F9BD4A5782BD06
:102B90003AD5ACBBFD2C333D51FABD3D112F113E52
:102BA000FA60433EE492753E0B9596BECEF770BE3A
:102BB00085C534BE7826F1BDCD8371BDBBA93AB9B8
:102BC000E0A9503D3507D13DBDDC1C3EDF35513E0F
:102BD00081C7823E82AE8EBE339864BE62D32BBE66
:102BE000241DE6BD052769BD6A78C2BA2DD45C3DB7
:102BF0000FDEDF3D04A9283E0063613E7E0E8D3E60
:102C000069B78FBE663765BEF9FF2ABE1791E1BD71
:102C10007A445ABD9E93693B6F2E5D3DD2E1D53D0E
:102C200037961E3E843B523E69F0823E66838BBEE1
:102C300059175EBEE62725BEE570D8BDFC234DBD05
:102C400087CEB43B542F633D6CE2D73D97161F3EB1
:102C5000F83B523EACB0823EA6E185BE0A5354BE5C
:102C6000C8E21CBE0CE5CABD0E0938BDECDF163C3F
:102C70006EDC803DDFDCEE3DA86E2E3EE06E653EF4
:102C80008C378E3E238A80BEDADB4BBE6EA316BE27
:102C900002D6C2BD52CA30BD835D103C25178A3DA5
:102CA0004D11013E07173D3EC21C793E3E919A3EB2
:102CB000F20A86BE51EE55BEBDC61FBE533ED3BD01
:102CC00056DE4DBD8DFF2B3B0E7F893D0FCF063E5F
:102CD00098DE483E1077853ED57EA63E9F067EBE96
:102CE000184E4CBE91951ABE14BAD1BD0D925CBD62
:102CF0008D7FADBB32CD6C3D2BA5F73DDF713C3EEA
:102D000028117D3E38D89E3EE14386BE065158BE0E
:102D1000491A24BE17C7DFBD3AB36EBD33C2EEBB3E
:102D20004F074D3D72F3DB3D9EB1283E8469633E03
:102D3000B4108F3EC77488BE61525ABE33BB23BEE7
:102D40000B48DABD60335ABDA35A25388BBA533DC0
:102D5000E0A5D33D3DB71E3E8A9B533EEB3F843EEC
:102D60009EF689BE94595BBEEDC522BE8A64D4BD71
:102D7000757A46BD51A1DE3B3DFF6D3D2815E03D16
:102D80005995243E1D20593E71D5863E331A8FBE7B
:102D90009D7C63BED3C428BE131ADCBD00554DBD57
:102DA0003351EC3BD2BA743DBEF5E53D0AC7283E2F
:102DB00035935E3EB02F8A3E9ED88ABEE4655DBEE6
:102DC0008B1A25BE659ED9BD680F52BD97DF713B3A
:102DD000A6AB643DA91CDD3DBFF1233E2A55593EFB
:102DE0004B5C873E734985BE857756BE235C22BE09
:102DF0008281DCBD7C9568BDA53FC1BB66C3493DF2
:102E000060D7D53D8666233E5DE15B3E1A2E8A3E45
:102E1000EE9680BECD3D51BEBC4D21BE57BBE2BD3E
:102E200036DB82BD56EC8BBC405D2D3D5658D03D07
:102E30000601253EE0D5613E5E558F3E9CFB81BE7E
:102E4000EEFB53BEA50024BEB70AE8BD251488BD1D
:102E50004A76A0BCA52D203D384BC83DCF3F203E33
:102E6000015A5C3E1A3A8C3E0E0387BE95445CBE06
:102E70000F832ABE1283F1BD06008EBDEAF3A9BC02
:102E800040EB083D3B68B33D6B2D113EB8A6483E74
:102E90000310803E282791BED4CC6ABE584B33BE67
:102EA000B993F7BDC19088BD496E4CBC6FF0123D1F
:102EB000387EAC3D1CC2073E1D45393E1DC86A3EEA
:102EC000D3E388BEFA925CBE4F5E27BE4753E4BD93
:102ED000E1D373BD9E09F8BBDD89323D770AC23D5F
:102EE0000068153EC4CA493E882D7E3E18E78CBE58
:102EF00016D462BEFCD92BBEC3BFE9BD1E9777BDF9
:102F0000AA75DDBB752E2E3DCF05BC3D327A103E35
:102F10007DF1423EC768753EF38890BE093368BEB6
:102F20002C542FBE9DEAECBDC55976BD7AF296BBF6
:102F3000CD30313DF49FBA3DC1530E3E88573F3EE0
:102F40004F5B703EC4D096BE4C7F72BE115D37BEE3
:102F5000AC75F8BD363182BD01CCBEBBF56D3F3DD1
:102F6000B55ACB3D387F1B3E1551513E7991833E7A
:102F7000E1C19CBE34DD7DBEA53642BE169006BEC4
:102F80000FD395BD8F2F74BCBC751B3DAEFBB93DF7
:102F90003F1E133EA73E493E0E5F7F3E6D0B9DBE1A
:102FA000216280BEA97147BE111F0EBEF098A9BD57
:102FB000FECEDBBCE090DA3C303CA43D14EA083E97
:102FC0000FB63F3E0B82763E6E8A99BED9317EBEE9
:102FD000D64E49BED36B14BEA011BFBD35972ABDD6
:102FE000016E8F3C9B029D3DDB140B3E68A8473E63
:102FF000FB1D823EF5F990BEADDF71BE71CB41BEC7
:1030000035B711BEF345C3BDF63A46BDB39FCF3BBE
:10301000E3227A3DE828ED3D2FA02E3EEAAB663E46
:103020002D8093BE4E2276BE434445BE396614BE03
:103030005C10C7BD8CA84ABDB514CABA41073E3D55
:10304000942FC13DC4AD113EBDC3423E7E9096BE9D
:10305000AF9C7ABE611848BE149415BE8C1FC6BDC5
:10306000E32D42BDD515B2BA850C373DDDD4B93D4F
:10307000BB110C3E08393B3E8E57A0BEACFF84BE50
:10308000934F53BECF9F1CBE16E0CBBD1B013DBD71
:10309000296CB7BB11260F3DD49C9A3D9FA6ED3DF0
:1030A0003558203E4A02ABBE66DF8CBE03795DBE5A
:1030B000393321BEE1DAC9BD9D9E22BDA36693BA14
:1030C0003368193DCDB59B3D81B7EA3D9ADC1C3E86
:1030D0004B8FB2BEF30E93BE361D67BE861C28BE54
:1030E000AD37D2BD996C28BD570DBDB96478253D6B
:1030F0007135A63DB1AEF93DF893263EBF0ABBBE81
:10310000BF2699BE7F856EBE80BD2ABE01EBCDBDB8
:1031100005B60CBDA642063C58D74F3D030FBF3D38
:103120002D190B3ED9AA363E7DDBB9BE054097BEB0
:103130001C4969BE2D1224BE7CB6BDBD7A22CDBC11
:10314000B1CE8E3CEE5F753D42ACD13D4654143E4F
:103150006BD23F3E3AACB8BE4B5995BEB80C64BE7C
:10316000DA661DBEF781ADBDE9D880BC0F7CDA3CC4
:1031700042748D3D8049E43D5F8F1D3EFEF9483E1F
:10318000F87CB7BE917293BE55D05EBE87BB16BEAB
:10319000724D9DBD613DD2BBB714133D8D38A03D2E
:1031A000BEE6F63D78CA263E9021523EB64DB6BEEA
:1031B000D78B91BEF19359BE341010BEED188DBD62
:1031C000C4D13D3B66EB383DD8FCB23DFEC1043E68
:1031D0009005303E23495B3E741EB5BE1DA58FBED3
:1031E0008E5754BEE16409BECFC879BD9307483CF1
:1031F00015C25E3D22C1C53D9D100E3EA940393E1F
:10320000B570643E31EFB3BE63BE8DBE2A1B4FBEA8
:103210008EB902BEC55F59BD5A4DB03C624C823D6D
:103220006D85D83D3C5F173EC27B423E48986D3E5F
:10323000EFBFB2BEA9D78BBEC6DE49BE751CF8BDB6
:10324000BAF638BDEB96FC3CB937953DB849EB3D35
:10325000DBAD203EDBB64B3EDABF763EAD90B1BE75
:10326000EFF089BE63A244BECFC5EABDB08D18BDE4
:103270003E70243D1123A83D030EFE3D7BFC293EFC
:10328000F4F1543E6DE77F3E6B61B0BE350A88BEF7
:10329000FF653FBE296FDDBD4B49F0BC06954A3D39
:1032A000680EBB3D2769083E1A4B333E0C2D5E3E2F
:1032B0008087843E2832AFBE7B2386BE9C293ABEDF
:1032C0008218D0BD3677AFBCCEB9703DC0F9CD3DC8
:1032D0004CCB113EB9993C3E2568673E491B893E5F
:1032E000E602AEBEC13C84BE38ED34BEDCC1C2BD18
:1032F000444A5DBC4B6F8B3D18E5E03D722D1B3E93
:1033000058E8453E3EA3703E12AF8D3EA4D3ACBEFE
:10331000075682BED5B02FBE366BB5BD354CB7BB98
:10332000B0819E3D6FD0F33D978F243EF7364F3EE0
:1033300057DE793EDB42923E61A4ABBE4D6F80BE4C
:1033400071742ABE9014A8BD3CF8173B1494B13D8B
:10335000E35D033EBDF12D3E9685583EB88C813E1F
:10336000A4D6963E1F75AABE26117DBE0D3825BE79
:10337000EABD9ABD38A2273C78A6C43D8FD30C3E47
:10338000E253373E35D4613E442A863E6E6A9B3E08
:10339000DD45A9BEB24379BEAAFB1FBE44678DBD01
:1033A00031A3943CDCB8D73D3B49163E08B6403EBD
:1033B000D4226B3ED1C78A3E37FE9F3E9B16A8BEE5
:1033C0003E7675BE46BF1ABE9E1080BD4675D53C82
:1033D00040CBEA3DE7BE1F3E2D184A3E7371743E56
:1033E0005D658F3E0092A43E58E7A6BECAA871BE96
:1033F000E38215BEEF7365BDAD230B3DA4DDFD3D3E
:103400009234293E527A533E13C07D3EE902943EE7
:10341000C925A93E16B8A5BE56DB6DBE7F4610BEB7
:10342000A2C64ABDB78C2B3D0478083E3EAA323E68
:1034300078DC5C3E5987833E76A0983E93B9AD3EDA
:10344000D488A4BEE10D6ABE1C0A0BBE561930BD5D
:10345000C2F54B3D3601123EEA1F3C3E9D3E663EA4
:10346000A82E883E023E9D3E5C4DB23E9159A3BEC1
:103470006D4066BEB8CD05BE0A6C15BDCC5E6C3D18
:10348000698A1B3E9695453EC3A06F3EF8D58C3E9B
:103490008FDBA13E25E1B63E000000000000803F2A
:1034A000000000000000803F000000000000803F9E
:1034B00000000000F304353FF30435BF32318D24A2
:1034C000000080BFF30435BFF30435BF5E836C3F5B
:1034D00015EFC3BEF304353FF30435BF15EFC33E0C
:1034E0005E836CBF15EFC33E5E836CBFF30435BFD4
:1034F000F30435BF5E836CBF15EFC33EBE147B3F44
:10350000C2C547BE5E836C3F15EFC3BE31DB543F7F
:10351000DA390EBFDA390E3F31DB54BF15EFC3BEC7
:103520005E836CBFBE147BBFC2C547BE31DB543F58
:10353000DA390EBF15EFC33E5E836CBFC2C547BE0E
:10354000BE147BBFC2C5473EBE147BBF5E836CBF4B
:1035500015EFC3BEDA390EBF31DB543F6DC47E3F79
:1035600036BDC8BDBE147B3FC2C547BE0BFA743F13
:1035700031A094BE9967223F03E445BFC2C547BE50
:10358000BE147BBF98C561BFEA5AF1BE98C5613FC2
:10359000EA5AF1BEDA390E3F31DB54BF36BDC83DC1
:1035A0006DC47EBF31A0943E0BFA74BF31DB54BFB3
:1035B000DA390EBF03E445BF9967223F0BFA743F27
:1035C00031A094BE31DB543FDA390EBF9967223FF8
:1035D00003E445BFEA5AF13E98C561BFDA390EBF30
:1035E00031DB54BF6DC47EBF36BDC83D03E4453FEB
:1035F000996722BFC2C5473EBE147BBFEA5AF1BEDF
:1036000098C561BF36BDC83D6DC47EBFBE147BBFCB
:10361000C2C547BE31A094BE0BFA743F0FB17F3FC5
:1036200030FB48BD6DC47E3F36BDC8BDAC3A7D3F62
:10363000834016BE4AEB2B3FF9AE3DBF36BDC8BD39
:103640006DC47EBF029F4DBFC07F18BFD86B673F60
:1036500080E8DABE9967223F03E445BFCCCF783ECD
:10366000F85378BFD47CAC3E080971BF03E445BF72
:10367000996722BF1A945BBF3D9C033FF853783F84
:10368000CCCF78BE98C5613FEA5AF1BEF9AE3D3F56
:103690004AEB2BBF3D9C033F1A945BBFEA5AF1BE35
:1036A00098C561BF0FB17FBF30FB48BD029F4D3F42
:1036B000C07F18BF31A0943E0BFA74BFD47CACBE5F
:1036C000080971BF8340163EAC3A7DBF0BFA74BF48
:1036D00031A094BE80E8DABED86B673FAC3A7D3F3C
:1036E000834016BE0BFA743F31A094BED86B673F7F
:1036F00080E8DABEC07F183F029F4DBF31A094BE64
:103700000BFA74BF080971BFD47CACBE1A945B3F3E
:103710003D9C03BFEA5AF13E98C561BF30FB48BDEE
:103720000FB17FBFCCCF783EF85378BF98C561BF4B
:10373000EA5AF1BE4AEB2BBFF9AE3D3F0809713F93
:10374000D47CACBE03E4453F996722BF3D9C033F58
:103750001A945BBF80E8DA3ED86B67BF996722BFD7
:1037600003E445BFF85378BFCCCF783EF9AE3D3F78
:103770004AEB2BBF36BDC83D6DC47EBFC07F18BFAE
:10378000029F4DBF30FB483D0FB17FBF6DC47EBF70
:1037900036BDC8BD834016BEAC3A7D3F43EC7F3F8B
:1037A000B00AC9BC0FB17F3F30FB48BD6D4E7F3FB3
:1037B00005A996BDBB85303F426839BF30FB48BD87
:1037C0000FB17FBF70D841BF563627BFA7096A3FE8
:1037D000CA7BCFBE4AEB2B3FF9AE3DBFE59AA03E78
:1037E000471473BF2A44B83E9ED86EBFF9AE3DBFA2
:1037F0004AEB2BBF59AA64BF7533E63E9DC7793F9C
:10380000135C60BED86B673F80E8DABE12D1493FD7
:10381000D17F1DBF9BF5083F534858BF80E8DABEF3
:10382000D86B67BF24137EBF73B2FABD3D4D513FC5
:103830002A6813BFD47CAC3E080971BF938E88BE42
:1038400007BA76BFA2102F3E283B7CBF080971BF84
:10385000D47CACBE275DFCBE05BE5E3F24137E3F1C
:1038600073B2FABDF853783FCCCF78BE9ED86E3F86
:103870002A44B8BED17F1D3F12D149BFCCCF78BEFC
:10388000F85378BFA7096ABFCA7BCFBE05BE5E3FAB
:10389000275DFCBE3D9C033F1A945BBFB00AC93C48
:1038A00043EC7FBF938E883E07BA76BF1A945BBF06
:1038B0003D9C03BF426839BFBB85303F4714733F0F
:1038C000E59AA0BE029F4D3FC07F18BF2A68133FF4
:1038D0003D4D51BF7533E63E59AA64BFC07F18BF46
:1038E000029F4DBF283B7CBFA2102F3E70D8413FA6
:1038F000563627BF8340163EAC3A7DBF9BF508BFC6
:10390000534858BF05A9963D6D4E7FBFAC3A7DBF69
:10391000834016BE135C60BE9DC7793F6D4E7F3FEE
:1039200005A996BDAC3A7D3F834016BE9DC7793F41
:10393000135C60BE5636273F70D841BF834016BE29
:10394000AC3A7DBF534858BF9BF508BF59AA643FA6
:103950007533E6BEC07F183F029F4DBFA2102F3EB9
:10396000283B7CBFE59AA03E471473BF029F4DBF22
:10397000C07F18BF3D4D51BF2A68133F07BA763F3D
:10398000938E88BE1A945B3F3D9C03BFBB85303F3E
:10399000426839BF275DFC3E05BE5EBF3D9C03BF4C
:1039A0001A945BBF43EC7FBFB00AC93C12D1493FB8
:1039B000D17F1DBFCCCF783EF85378BFCA7BCFBE36
:1039C000A7096ABF73B2FA3D24137EBFF85378BFCC
:1039D000CCCF78BE2A44B8BE9ED86E3F283B7C3FF1
:1039E000A2102FBE0809713FD47CACBE05BE5E3F5D
:1039F000275DFCBE2A68133F3D4D51BFD47CACBE51
:103A0000080971BF07BA76BF938E88BE5348583FE6
:103A10009BF508BF80E8DA3ED86B67BF73B2FABD8A
:103A200024137EBF135C603E9DC779BFD86B67BF10
:103A300080E8DABED17F1DBF12D1493F9ED86E3FCC
:103A40002A44B8BEF9AE3D3F4AEB2BBF7533E63E84
:103A500059AA64BFCA7BCF3EA7096ABF4AEB2BBFF6
:103A6000F9AE3DBF471473BFE59AA03E4268393FA7
:103A7000BB8530BF30FB483D0FB17FBF563627BFF7
:103A800070D841BFB00AC93C43EC7FBF0FB17FBFC4
:103A900030FB48BD05A996BD6D4E7F3F11FB7F3FB2
:103AA000900E49BC43EC7F3FB00AC9BC98D37F3F1E
:103AB0002CC316BDC9C8323F233A37BFB00AC9BCB0
:103AC00043EC7FBF3B8F3BBFDE3B2EBF0C4B6B3FBE
:103AD00053B9C9BEBB85303F426839BFEF63B23EC0
:103AE00073F56FBF4A1DBE3E93B26DBF426839BFCA
:103AF000BB8530BF3CBF68BF4136D53E02737A3FBD
:103B0000011554BEA7096A3FCA7BCFBE1F7A4F3F3B
:103B1000D9F615BF6B9A0B3FE59556BFCA7BCFBE52
:103B2000A7096ABFC9BF7CBFB6AB22BE4918533FC5
:103B3000CDD310BF2A44B83E9ED86EBF7F9A6CBECC
:103B4000981279BFCF6E3B3ECDAC7BBF9ED86EBF87
:103B50002A44B8BE824B06BF6AF2593FB0707E3F1E
:103B60002EBCE1BD9DC7793F135C60BE5213723F0E
:103B7000128FA6BECBF61F3F65DE47BF135C60BE4B
:103B80009DC779BF880F66BF4F92E0BE2146603F58
:103B9000CBE0F6BE9BF5083F534858BF742B7B3DE6
:103BA000AB847FBF229A8E3EC6DE75BF534858BF96
:103BB0009BF508BF67C73FBF1594293FDD0B743FD6
:103BC00086A09ABE3D4D513F2A6813BFC6021B3FD7
:103BD000F8BB4BBFBBCBEB3E5A3C63BF2A6813BF5D
:103BE0003D4D51BFCCAB7DBF86CF093E00E2433F88
:103BF00025D224BFA2102F3E283B7CBFE4E700BFA4
:103C0000532D5DBF80B6AF3D580E7FBF283B7CBFB4
:103C1000A2102FBEC07D82BEC58B773FAB847F3F95
:103C2000742B7BBD24137E3F73B2FABDCDAC7B3FBA
:103C3000CF6E3BBE1594293F67C73FBF73B2FABD35
:103C400024137EBF491853BFCDD310BF880F663FE2
:103C50004F92E0BED17F1D3F12D149BF0115543EA6
:103C600002737ABF128FA63E521372BF12D149BFA0
:103C7000D17F1DBFE59556BF6B9A0B3FC58B773F34
:103C8000C07D82BE05BE5E3F275DFCBE233A373F46
:103C9000C9C832BFE4E7003F532D5DBF275DFCBEBE
:103CA00005BE5EBF11FB7FBF900E49BCF8BB4B3F0A
:103CB000C6021BBF938E883E07BA76BF4A1DBEBEA2
:103CC00093B26DBF86CF093ECCAB7DBF07BA76BF3E
:103CD000938E88BE53B9C9BE0C4B6B3FC9BF7C3FA6
:103CE000B6AB22BE4714733FE59AA0BE5A3C633F71
:103CF000BBCBEBBED9F6153F1F7A4FBFE59AA0BEEE
:103D0000471473BFDD0B74BF86A09ABE6AF2593F99
:103D1000824B06BF7533E63E59AA64BF80B6AFBD7D
:103D2000580E7FBF7F9A6C3E981279BF59AA64BF24
:103D30007533E6BE25D224BF00E2433F73F56F3FE3
:103D4000EF63B2BE70D8413F563627BFCBE0F63E98
:103D5000214660BF4136D53E3CBF68BF563627BFBF
:103D600070D841BFC6DE75BF229A8E3E3B8F3B3F67
:103D7000DE3B2EBF05A9963D6D4E7FBFCBF61FBF24
:103D800065DE47BF2CC3163D98D37FBF6D4E7FBF06
:103D900005A996BD2EBCE1BDB0707E3F98D37F3F94
:103DA0002CC316BD6D4E7F3F05A996BDB0707E3FFA
:103DB0002EBCE1BDDE3B2E3F3B8F3BBF05A996BD30
:103DC0006D4E7FBF65DE47BFCBF61FBF3CBF683F70
:103DD0004136D5BE5636273F70D841BF229A8E3E17
:103DE000C6DE75BFEF63B23E73F56FBF70D841BFDB
:103DF000563627BF214660BFCBE0F63E9812793F8A
:103E00007F9A6CBE59AA643F7533E6BE00E2433F19
:103E100025D224BF824B063F6AF259BF7533E6BEF6
:103E200059AA64BF580E7FBF80B6AFBD1F7A4F3FFF
:103E3000D9F615BFE59AA03E471473BF86A09ABE77
:103E4000DD0B74BFB6AB223EC9BF7CBF471473BF46
:103E5000E59AA0BEBBCBEBBE5A3C633FCCAB7D3FEB
:103E600086CF09BE07BA763F938E88BE0C4B6B3F58
:103E700053B9C9BEC6021B3FF8BB4BBF938E88BE69
:103E800007BA76BF93B26DBF4A1DBEBE532D5D3FCC
:103E9000E4E700BF275DFC3E05BE5EBF900E49BC57
:103EA00011FB7FBFC07D823EC58B77BF05BE5EBF65
:103EB000275DFCBEC9C832BF233A373F5213723F59
:103EC000128FA6BE12D1493FD17F1DBF6B9A0B3F07
:103ED000E59556BF4F92E03E880F66BFD17F1DBF6C
:103EE00012D149BF02737ABF0115543E67C73F3FE5
:103EF000159429BF73B2FA3D24137EBFCDD310BFF2
:103F0000491853BF742B7B3DAB847FBF24137EBF06
:103F100073B2FABDCF6E3BBECDAC7B3F580E7F3F38
:103F200080B6AFBD283B7C3FA2102FBEC58B773F2C
:103F3000C07D82BE25D2243F00E243BFA2102FBE27
:103F4000283B7CBF532D5DBFE4E700BF5A3C633F75
:103F5000BBCBEBBE2A68133F3D4D51BF86CF093E18
:103F6000CCAB7DBF86A09A3EDD0B74BF3D4D51BFEB
:103F70002A6813BFF8BB4BBFC6021B3FC6DE753FA6
:103F8000229A8EBE5348583F9BF508BF1594293F8F
:103F900067C73FBFCBE0F63E214660BF9BF508BF39
:103FA000534858BFAB847FBF742B7B3D65DE473FD2
:103FB000CBF61FBF135C603E9DC779BF4F92E0BE3A
:103FC000880F66BF2EBCE13DB0707EBF9DC779BF34
:103FD000135C60BE128FA6BE5213723FCDAC7B3F06
:103FE000CF6E3BBE9ED86E3F2A44B8BE6AF2593FA0
:103FF000824B06BFCDD3103F491853BF2A44B8BEE9
:104000009ED86EBF981279BF7F9A6CBEE595563FD9
:104010006B9A0BBFCA7BCF3EA7096ABFB6AB22BE65
:10402000C9BF7CBF0115543E02737ABFA7096ABF9E
:10403000CA7BCFBED9F615BF1F7A4F3F93B26D3FF3
:104040004A1DBEBE4268393FBB8530BF4136D53EB2
:104050003CBF68BF53B9C93E0C4B6BBFBB8530BF7B
:10406000426839BF73F56FBFEF63B23E233A373F03
:10407000C9C832BFB00AC93C43EC7FBFDE3B2EBF8C
:104080003B8F3BBF900E493C11FB7FBF43EC7FBF92
:10409000B00AC9BC2CC316BD98D37F3FC4FE7F3F76
:1040A000880FC9BB11FB7F3F900E49BCE6F47F3FF0
:1040B000B6C996BCBCE7333F6C2036BF900E49BCF6
:1040C00011FB7FBF165238BF1DA831BF58E86B3FA8
:1040D00029D5C6BEC9C8323F233A37BFA031BB3E3F
:1040E000BE466EBF1E07C13E1D1C6DBF233A37BFC3
:1040F000C9C832BF7BAB6ABF8B9BCC3E16C57A3F2B
:1041000060EE4DBE0C4B6B3F53B9C9BEC633523F38
:10411000B01E12BFD0EA0C3F93B955BF53B9C9BE08
:104120000C4B6BBF31F57BBF984035BEC3FA533F94
:1041300084870FBF4A1DBE3E93B26DBF97395ABEEA
:10414000841E7ABF379B413EFC617BBF93B26DBF3B
:104150004A1DBEBEAD480ABF2670573FC99B7E3F71
:10416000B93DD5BD02737A3F011554BE3F91733FEF
:10417000789E9DBEF92F213F2AE246BF011554BE0D
:1041800002737ABF73F463BFB700E9BEF206613F02
:10419000071FF4BE6B9A0B3FE59556BF8C30A33DCD
:1041A0009D2F7FBFDD9D913E976D75BFE59556BFF5
:1041B0006B9A0BBF29DE42BF0A05263F2284743F5B
:1041C00017A197BE4918533FCDD310BF12BC1E3F55
:1041D000B3D848BF7994EE3E108262BFCDD310BFF2
:1041E000491853BF23437EBF7638EE3DF5E3443F85
:1041F000A99D23BFCF6E3B3ECDAC7BBF2DA0F9BEAA
:1042000027835FBFC33ABC3D9DEA7EBFCDAC7BBF79
:10421000CF6E3BBE07958BBE974D763F189C7F3F78
:10422000691462BDB0707E3F2EBCE1BDB07E7C3FA4
:10423000FCDE28BE82C02A3F1BBC3EBF2EBCE1BDB7
:10424000B0707EBFAF6450BF39B014BFCCBE663F04
:1042500079BEDDBECBF61F3F65DE47BF667C663E9E
:104260004E6E79BFC486A93E578F71BF65DE47BFCA
:10427000CBF61FBF6A1E59BF36A1073F10F1773F2B
:10428000E1E67EBE2146603FCBE0F6BEA47C3A3F2D
:10429000A5612FBFB142023FC7615CBFCBE0F6BE54
:1042A000214660BF29E17FBFBA49FBBC79AE4C3FD4
:1042B00000C219BF229A8E3EC6DE75BFEC54B5BE51
:1042C00030686FBFB708103E74747DBFC6DE75BF1F
:1042D000229A8EBE095AD2BE9165693F73FE7C3F19
:1042E000DE761CBEDD0B743F86A09ABE0B5E653F7A
:1042F000FA63E3BE073C173F908D4EBF86A09ABE7F
:10430000DD0B74BFF89472BFC595A3BE50C45A3F6D
:1043100084F404BFBBCBEB3E5A3C63BF0A208ABD8A
:10432000C76A7FBF51B6723E7BB478BF5A3C63BF49
:10433000BBCBEBBE056628BFDAD0403F6680703F3E
:104340003A71AFBE00E2433F25D224BFB217FF3E11
:10435000BEF65DBF6B10D83EA81668BF25D224BF3D
:1043600000E243BF172477BFCE86853E03A03C3FC3
:1043700069142DBF80B6AF3D580E7FBF0C421CBFE5
:104380007FC74ABF07E02F3D8FC37FBF580E7FBF57
:1043900080B6AFBD029503BEB1E07D3F29E17F3F0E
:1043A000BA49FBBCAB847F3F742B7BBD9DEA7E3F4B
:1043B000C33ABCBDA5612F3FA47C3ABF742B7BBD23
:1043C000AB847FBFF5E344BFA99D23BF9165693FDF
:1043D000095AD2BE1594293F67C73FBF17A1973E20
:1043E000228474BFEC54B53E30686FBF67C73FBFCF
:1043F000159429BF108262BF7994EE3E4E6E793FCC
:10440000667C66BE880F663F4F92E0BE2AE2463F5A
:10441000F92F21BF36A1073F6A1E59BF4F92E0BE58
:10442000880F66BFC99B7EBFB93DD5BDAF64503F05
:1044300039B014BF128FA63E521372BFDD9D91BEDC
:10444000976D75BFFCDE283EB07E7CBF521372BFF5
:10445000128FA6BE071FF4BEF206613FB1E07D3F9A
:10446000029503BEC58B773FC07D82BE1D1C6D3F8C
:104470001E07C1BE0C421C3F7FC74ABFC07D82BE23
:10448000C58B77BF58E86BBF29D5C6BEBEF65D3F6A
:10449000B217FFBEE4E7003F532D5DBF880FC93B55
:1044A000C4FE7FBFCE86853E172477BF532D5DBFE8
:1044B000E4E700BF6C2036BFBCE7333FF894723F9F
:1044C000C595A3BEF8BB4B3FC6021BBF84870F3FF9
:1044D000C3FA53BFFA63E33E0B5E65BFC6021BBF60
:1044E000F8BB4BBFFC617BBF379B413EDAD0403FFE
:1044F000056628BF86CF093ECCAB7DBFD0EA0CBF96
:1045000093B955BF0A208A3DC76A7FBFCCAB7DBF38
:1045100086CF09BE60EE4DBE16C57A3F9D2F7F3F08
:104520008C30A3BDC9BF7C3FB6AB22BE7BB4783F05
:1045300051B672BE0A05263F29DE42BFB6AB22BE87
:10454000C9BF7CBF50C45ABF84F404BF73F4633F37
:10455000B700E9BED9F6153F1F7A4FBFDE761C3E85
:1045600073FE7CBF789E9D3E3F9173BF1F7A4FBF05
:10457000D9F615BF908D4EBF073C173F974D763F3C
:1045800007958BBE6AF2593F824B06BF69142D3FD7
:1045900003A03CBF2DA0F93E27835FBF824B06BF1F
:1045A0006AF259BF8FC37FBF07E02F3DB3D8483FA2
:1045B00012BC1EBF7F9A6C3E981279BF6B10D8BE9A
:1045C000A81668BF7638EE3D23437EBF981279BFA8
:1045D0007F9A6CBE3A71AFBE6680703F31F57B3F0B
:1045E000984035BE73F56F3FEF63B2BEC7615C3F65
:1045F000B14202BFB01E123FC63352BFEF63B2BE1C
:1046000073F56FBF10F177BFE1E67EBE2670573FAE
:10461000AD480ABF4136D53E3CBF68BFB70810BEA3
:1046200074747DBF97395A3E841E7ABF3CBF68BF01
:104630004136D5BE00C219BF79AE4C3FBE466E3F73
:10464000A031BBBE3B8F3B3FDE3B2EBF79BEDD3E84
:10465000CCBE66BF8B9BCC3E7BAB6ABFDE3B2EBF26
:104660003B8F3BBF578F71BFC486A93E1652383F60
:104670001DA831BF2CC3163D98D37FBF82C02ABF6F
:104680001BBC3EBFB6C9963CE6F47FBF98D37FBF44
:104690002CC316BD691462BD189C7F3FE6F47F3FB2
:1046A000B6C996BC98D37F3F2CC316BD189C7F3FDC
:1046B000691462BD1DA8313F165238BF2CC316BD08
:1046C00098D37FBF1BBC3EBF82C02ABF7BAB6A3F73
:1046D0008B9BCCBEDE3B2E3F3B8F3BBFC486A93EAF
:1046E000578F71BFA031BB3EBE466EBF3B8F3BBFF5
:1046F000DE3B2EBFCCBE66BF79BEDD3E841E7A3F58
:1047000097395ABE3CBF683F4136D5BE79AE4C3F63
:1047100000C219BFAD480A3F267057BF4136D5BE0B
:104720003CBF68BF74747DBFB70810BEC633523F2C
:10473000B01E12BFEF63B23E73F56FBFE1E67EBEFF
:1047400010F177BF9840353E31F57BBF73F56FBFF1
:10475000EF63B2BEB14202BFC7615C3F23437E3FFD
:104760007638EEBD9812793F7F9A6CBE6680703FB6
:104770003A71AFBE12BC1E3FB3D848BF7F9A6CBE21
:10478000981279BFA81668BF6B10D8BE27835F3F09
:104790002DA0F9BE824B063F6AF259BF07E02F3DBC
:1047A0008FC37FBF07958B3E974D76BF6AF259BF87
:1047B000824B06BF03A03CBF69142D3F3F91733F5E
:1047C000789E9DBE1F7A4F3FD9F615BF073C173F15
:1047D000908D4EBFB700E93E73F463BFD9F615BFA5
:1047E0001F7A4FBF73FE7CBFDE761C3E29DE423F40
:1047F0000A0526BFB6AB223EC9BF7CBF84F404BF06
:1048000050C45ABF8C30A33D9D2F7FBFC9BF7CBF12
:10481000B6AB22BE51B672BE7BB4783FC76A7F3F4B
:104820000A208ABDCCAB7D3F86CF09BE16C57A3F34
:1048300060EE4DBE0566283FDAD040BF86CF09BE88
:10484000CCAB7DBF93B955BFD0EA0CBF0B5E653FC3
:10485000FA63E3BEC6021B3FF8BB4BBF379B413E2A
:10486000FC617BBFC595A33EF89472BFF8BB4BBFFC
:10487000C6021BBFC3FA53BF84870F3F1724773F7D
:10488000CE8685BE532D5D3FE4E700BFBCE7333FD6
:104890006C2036BFB217FF3EBEF65DBFE4E700BF37
:1048A000532D5DBFC4FE7FBF880FC93B7FC74A3F02
:1048B0000C421CBFC07D823EC58B77BF29D5C6BECA
:1048C00058E86BBF0295033EB1E07DBFC58B77BF53
:1048D000C07D82BE1E07C1BE1D1C6D3FB07E7C3FE9
:1048E000FCDE28BE5213723F128FA6BEF206613F55
:1048F000071FF4BE39B0143FAF6450BF128FA6BE7D
:10490000521372BF976D75BFDD9D91BE6A1E593FF0
:1049100036A107BF4F92E03E880F66BFB93DD5BDB7
:10492000C99B7EBF667C663E4E6E79BF880F66BFB0
:104930004F92E0BEF92F21BF2AE2463F30686F3F19
:10494000EC54B5BE67C73F3F159429BF7994EE3E3E
:10495000108262BF095AD23E916569BF159429BF82
:1049600067C73FBF228474BF17A1973EA47C3A3F1C
:10497000A5612FBF742B7B3DAB847FBFA99D23BF57
:10498000F5E344BFBA49FB3C29E17FBFAB847FBF5D
:10499000742B7BBDC33ABCBD9DEA7E3F8FC37F3F76
:1049A00007E02FBD580E7F3F80B6AFBDB1E07D3F21
:1049B000029503BE69142D3F03A03CBF80B6AFBD76
:1049C000580E7FBF7FC74ABF0C421CBFA816683F66
:1049D0006B10D8BE25D2243F00E243BFCE86853E71
:1049E000172477BF3A71AF3E668070BF00E243BFC5
:1049F00025D224BFBEF65DBFB217FF3E7BB4783F21
:104A000051B672BE5A3C633FBBCBEBBEDAD0403FDF
:104A1000056628BF84F4043F50C45ABFBBCBEBBE2D
:104A20005A3C63BFC76A7FBF0A208ABD908D4E3F44
:104A3000073C17BF86A09A3EDD0B74BFC595A3BE89
:104A4000F89472BFDE761C3E73FE7CBFDD0B74BF34
:104A500086A09ABEFA63E3BE0B5E653F74747D3F29
:104A6000B70810BEC6DE753F229A8EBE9165693FBB
:104A7000095AD2BE00C2193F79AE4CBF229A8EBEEF
:104A8000C6DE75BF30686FBFEC54B5BEC7615C3F12
:104A9000B14202BFCBE0F63E214660BFBA49FBBC43
:104AA00029E17FBFE1E67E3E10F177BF214660BF7E
:104AB000CBE0F6BEA5612FBFA47C3A3F578F713F74
:104AC000C486A9BE65DE473FCBF61FBF36A1073FB0
:104AD0006A1E59BF79BEDD3ECCBE66BFCBF61FBF96
:104AE00065DE47BF4E6E79BF667C663E1BBC3E3FAF
:104AF00082C02ABF2EBCE13DB0707EBF39B014BF6A
:104B0000AF6450BF6914623D189C7FBFB0707EBF18
:104B10002EBCE1BDFCDE28BEB07E7C3F9DEA7E3F20
:104B2000C33ABCBDCDAC7B3FCF6E3BBE974D763F0D
:104B300007958BBEA99D233FF5E344BFCF6E3BBED7
:104B4000CDAC7BBF27835FBF2DA0F9BE1082623F33
:104B50007994EEBECDD3103F491853BF7638EE3D61
:104B600023437EBF17A1973E228474BF491853BFC9
:104B7000CDD310BFB3D848BF12BC1E3F976D753F51
:104B8000DD9D91BEE595563F6B9A0BBF0A05263F0A
:104B900029DE42BF071FF43EF20661BF6B9A0BBFCE
:104BA000E59556BF9D2F7FBF8C30A33D2AE2463F3F
:104BB000F92F21BF0115543E02737ABFB700E9BE39
:104BC00073F463BFB93DD53DC99B7EBF02737ABF05
:104BD000011554BE789E9DBE3F91733FFC617B3FA3
:104BE000379B41BE93B26D3F4A1DBEBE2670573FF4
:104BF000AD480ABF84870F3FC3FA53BF4A1DBEBEEC
:104C000093B26DBF841E7ABF97395ABE93B9553F90
:104C1000D0EA0CBF53B9C93E0C4B6BBF984035BEB0
:104C200031F57BBF60EE4D3E16C57ABF0C4B6BBFB6
:104C300053B9C9BEB01E12BFC633523F1D1C6D3FD3
:104C40001E07C1BE233A373FC9C832BF8B9BCC3E3B
:104C50007BAB6ABF29D5C63E58E86BBFC9C832BF17
:104C6000233A37BFBE466EBFA031BB3E6C20363FF5
:104C7000BCE733BF900E493C11FB7FBF1DA831BF7D
:104C8000165238BF880FC93BC4FE7FBF11FB7FBFE0
:104C9000900E49BCB6C996BCE6F47F3F67C2673F39
:104CA000000000002A7160BDCFBB6FBC40459D3C39
:104CB000AFF7223DD321FBBCA98CB7BC2E74253D98
:104CC000B93FE53C85EC2FBB3E60FFBBAFB9513B24
:104CD0005A7B173C8FD249BCF40901BCEF5A223CE5
:104CE00088D10EBC6D3EE63BCC5A40BAB79B6FBB39
:104CF00060361A3B33F2F4BAC16F88BAE70B263C30
:104D000063BA343C744F323C8E0EC83BA4DB46BBC6
:104D100019A008BB0138163A38421DBA1DAE653CD1
:104D2000EB2D1E3C5201A63E50E2623FCD7DA33CDE
:104D3000C2F3BEBCE6EE6FBDB638863DE643E23B4D
:104D4000CDC9EEBC5165D6BC9E58403DD6DECE3BAB
:104D50003A056B3AB23366BC2BAF883B144584BA34
:104D600013C45E3B06B7B13B7CCBE23B4EE7B5BB21
:104D700090FCC8BA1372AD3AA319333A3590FABA17
:104D800070D88B39F958A6BBCF27EF3B50CF3C3AB0
:104D90006128BFBA2B003A3972421CBBD23442BCE4
:104DA000BBA6E43CD9669B3D576DC3BC033012BF24
:104DB000D6E8373FD223943C1333E6BC8D24843CA1
:104DC00062C9E93BD7F08E3B65C8E3BB5E8C89BD09
:104DD0004A74083C11E7663C04A40FBBB403623C70
:104DE0005CD147BC55D8C73BB44480BCFC942EBBB7
:104DF00066D84E3C52214BBB3CEBF2BA1B83343C91
:104E0000DEE817BC6418E6BB2F131B3C8FA104BC63
:104E10006466AC3AA09864BBEA2DAB3A080D90BC2E
:104E20007F5E7F3CDE3DB83CADF6A6BD634AE03C0C
:104E3000D56F7EBD281D11BFE2E552BFBDCF91B831
:104E40002B2E433BE31C973C54E8243CA6251A3BFD
:104E5000CB55213CC2FEDC3C1D0270BDE6BA953B41
:104E6000A8DD793C0CC1FF3CD8FDFABB342E56BB03
:104E7000DE93B03BA71BD3BB007168BBCF17373C99
:104E8000D02A043D6FB150BBC09ECC3CF1B89EBA55
:104E900012062A3AD9FF1E3AA94798BB7F1263BD72
:104EA000FF054C3DA4BB583CAED4B2BBCF03C9BB3D
:104EB000C05303BC85B4003C47F1B8BB1983BABCEE
:104EC000E4C4533F015DEFB9ED017ABC136C7CBCC7
:104ED0006EB808BC6F6CB73B3FA83BBC5E942DBD61
:104EE0001A83533DA1EF76BB0A87D7B8009E45BB16
:104EF000F326A53AA793B23B6BA6C8BB6892D53BF5
:104F0000BFE4B1BB6633D0BA98FF17BBD9B68ABA33
:104F100070363FBB2CA3423AD7532ABBFFECD73C99
:104F2000CD60793A7F8311BD1E1E90BD405EDDBB12
:104F3000F1A2D33C32937A3CAB8045BCABE0933CCE
:104F40009B9211BC4D7548BF0F508A3E3643723C50
:104F5000CDC4563C39ABDFBCD39F4CBD30F2313CA5
:104F6000D89CC8BB88C657BD0FF1CABC9096873B7A
:104F700032F2523C12D167BBAEDD5FBC35B4A8390A
:104F8000783220BC80EC303CBB21FDBBBAC9613B10
:104F9000D8DE0A3CBF554CB9F887BF3AB583393BD8
:104FA000BE39923ABE8E8ABB7E28DE39C84E413C5D
:104FB000FFE48DBDFC52773CE562483DAA55B6BA88
:104FC0004DB93B3B0D90FA3B08EFDF3C222D1BBF58
:104FD000C87703BFA9A7543C45C48FBB92F2AC3C31
:104FE0006A667EBC755B03BD173847BC365F8CBBF9
:104FF000A4A687BD5F50703B13AE6E3C38B4483CEE
:10500000F6C42BBD7265833BF5FB4DBBDBB54F3B57
:10501000F28D9D3BA8E621BCD82A0C3C064DE8BA8F
:10502000882C0A3B43E2543B1FC93E3C0046F73BF9
:105030002651783C2830893D9C1C093DEF898EBB68
:10504000546C8DBC33555F3D4FEAC03CA6D9B53D8D
:1050500093B78A3D3DF8353FF241F8BE8382B13BBC
:10506000148D8F3A6DE2AB3B74953CBCC219B4BB56
:10507000D436233C4051703D8357C73C51284D3CAA
:105080009ED02A3CD4A9C93C35A0973BA003C3BB02
:105090005F7397BB2ABC86BB45FAC83B19E750BC77
:1050A000CF86ACBB7B5B96BC3E7ACEBB4E7BFEB95B
:1050B000F477793C4C0857BC623985BB96A89CBCF8
:1050C000FC947BBC09D435BB77247D3BBB39213CA8
:1050D000B50D91BB568440BC596C563B8D2C55BFC9
:1050E000CFE86DBE6423813C38E8D03B94423F3C1E
:1050F0007C01D3BC46518F3C07E4A33C96AD89BBF1
:10510000589A55BDFDFF183BB81A7CBBA868C73A32
:10511000B74993BBC680463AD905AA3BF748253C18
:10512000E827273CE95B97BBEFD3B2BB41742B3B2D
:10513000DABB4E3D71EB1BBDAB14223DCB20AB3B2C
:10514000ACF6913AFC0B063D48A2843A61D3C4BC4C
:105150001C695CBBC01A7B3BE18F5D3C11C0E93B25
:10516000BC54D33B8D1FB5BDAFE05EBFA7EEE8BC1E
:105170000071BB3C7C418B3D3FD298BCFF3D433A24
:1051800079C4673B0B383D3D029627BCAB3EBBBBA9
:10519000F7759CBA8E574D3C7D28183CA2271C3BC6
:1051A000DB1031BBD6C7FEB9FBF863BB15EB823C05
:1051B000F901113A288AE5BBF023BD3CC947803B81
:1051C000E889DA3A3F09C33B2BE9D2BCA7CA943C31
:1051D000D5EFA23C5F9363BD402E683CC059FD3BB8
:1051E000125726BA03B033BD2A2E01BC85772A3F59
:1051F000F85AFCBE3134CE3A08ED153C8D764C3B66
:105200006EBDBCB9DE65D83C31D6863A4EB12A3D7A
:1052100008FF253D329CF0BC3F5E933BA223753BCB
:10522000F4187BBB66A3B63B12A2B1BA2A7830BC95
:105230003D4A273BCF885ABBF2D5EC3BAC24133B0D
:10524000900DE4BA1397353A21A0603BD7E3BABB7F
:10525000C11EB43C08F5C4BC63F42D3C519CBE3C5B
:10526000A2F3213C660AFFBCF8654A3DEDC1B9BD19
:105270009D53933D668B9F3E199F573F47508E3BF2
:105280000737433C07B1743B18FF243C9951F83B66
:105290003F9C60BB47FA21BD93701A3C895C893BF7
:1052A000D3CC023C08C1E73B3802B7BBB824D5BB1E
:1052B000347AB1BCD045223DAD71F4BC0A50E3BB99
:1052C0005699333BCD26D0BAB0DC74BC28261E3BA1
:1052D0009E1CA5BBA826BDBCB3CFB83BF1F7793D5A
:1052E0006AD944BC288683BC05E18D3BBF77E5BB0A
:1052F000332769BA2FE0ADB9F6EC2BBBB89A693FFA
:10530000C18A6ABEBF6460BB582E1BBC2816173BFF
:105310003DB6F33C3DA1DEBC0EFE75BCD888EE392F
:10532000ACEB4A3A96941DBC4FB5E63B742D45BC98
:10533000111C9DBCA7C27E3BE5895BBCBC8EF53AC7
:105340001106B7BB010126BCC26A2CBC816C06BD2C
:10535000221A33BC8BD16ABCFA4A8F3B7020C0BA88
:10536000E2E1643A2798813B74A38F3D5C8E39BBA0
:10537000C9D1A53B57395F3B3B592A3B8A75F5BBE1
:105380003DAD24BC2163093FEB36423FCF0DAE3C1F
:10539000BC78A3BC2DA064BDA640503D86AC023BAA
:1053A000DD9396B9B14AE43BFECC8CBAF21141BC14
:1053B000C3966F3BB023D2BB41F6F4BAB880FD3A36
:1053C0000FAC813B88383A3C21DA8B3ACD72C1BBB5
:1053D00011A6EEBBF2F094BC6C7BFDBBDC37B73A98
:1053E0005D60B33B090A223C4D22913B0B8F3EBDD1
:1053F0003F89393D22D07BBCF6AA55BD03148D3AB6
:10540000282DFA3B5C12383D15F4B6BC8229B9BE92
:1054100016CA513F0CB209BD595702BC8AF610BBDF
:10542000AD58AA3A9E798C3B5C269D3BE4785ABCE9
:105430001EED503950BE2F3CA88785BCE0F2443B9E
:105440008FADBE3BBDA0333BA722903B26B0DCBB5B
:10545000E818C4BBA43B563C354F3EBAE0A8B6B8EA
:10546000DF91B83BAFF0A7B9330877BA60C53DBC50
:105470004F3B00BC16271DBD02B671BDE4E8CDBC94
:105480003052203CE5E8FA3BD7AA83BD2C530F3DB0
:1054900021D3FEBD7AAE3BBF0E0A1FBFB687683F61
:1054A0000000000036FDDABD540EB4BC7B8A4F3DCF
:1054B000B529C23DEA87E73A29614A3D4399053D4E
:1054C0003323D7393B9C90BC6B1B00BDEE9EB0BC18
:1054D0003125593C1A2F7F3DC24CE9BC5ADE1B3D99
:1054E000DFA25EBDF90F1D3D7309AB3CCF24DF3B4E
:1054F0007B5B62BC4F2B2B3CA5B7AA3B3C8074BDA9
:105500001C73AC3D60BA0DBD67836C3DFC6DFC3B0C
:10551000CB5CC9BA7AEF0D3A048D93398C0342BD46
:10552000A2B995BC0FFE923E26E55F3FD7D54B3D15
:105530004890D1BCB35725BDDB06FE3D4747103D23
:10554000A5B4CB3C5891B7BDEAB4333D27AD4DBCB3
:10555000D581D23C5760193BF73847BC1EA5ADBC7E
:105560001FAF09BD02D47DBBE69CDABCE6D4A3BB69
:10557000EBDD1CBCF7EC133CA8ED883A4A3724BCA1
:10558000A259853D67B1A5BCE8C9B23CA009AF3BB3
:10559000E23C95BB1E1F993BDFC68FB96F1E5DBCF9
:1055A000208EC13CC8778D3D8D388EBB91A420BF25
:1055B0007C051A3F63CD5B3D7849FCBC4E3F1F3CE8
:1055C000D5C2593C70F0693ABE0B893D110A4CBDF9
:1055D000B15531BD6B53E3BC6A87F0BB519999BD9E
:1055E000E0E5833D245351BCB607CEBB9FE6E338CC
:1055F00077132F3C7B2536BCAB62DFBB8D6A263D23
:1056000099AED0BBA72BB03C9A4BDA3B917855BCF6
:1056100094E4CABA271B30BBDBADACB9C32DE4BCE4
:10562000AAA9283BCCE4833CECFB1BBDB6770E3D1E
:1056300009BD0EBE4DD8C5BECB6C50BFBC2BE9BC5E
:105640007E4546BCBE61153DEC118A3C6EFF3D3C7B
:1056500024E9113D52260F3D879353BDE42B40BDF5
:10566000DB9B763C31016EBCBDC8A43CDA9422B908
:10567000532126BC132FEEBAA94F62BADB611D3C41
:10568000579FAC3DCBCD98BB9A32233DAB8B943723
:10569000611553BA91D1803BE51583B9358D7FBD36
:1056A0000B3CCF3C6B3EE8BCDE548D3DBADBCA3CC4
:1056B0001D712D3C582F3B3CB7AC7A3D3033E5BDD6
:1056C00030B74D3F6F650BBD3D6D1ABDCA8AF0BC4A
:1056D00068B1D23B16A4233D1806F7BCE8803ABD5A
:1056E000B5834EBC606722BB308097BB0A55B03B88
:1056F0003D43E1BB8CE2D03B3DA7BA3BE5577DBCC7
:1057000056864A3D0FDCA8BCEAD9DC3CC4511B3BA1
:10571000B3B268B919B69BBAF60818BBC8974F3D23
:105720008551933BFD5250BD62DF97BE9C196E3D83
:10573000FC1FAB3DDD2D98BDAD935CBD8A474D3E52
:10574000958055BD97276CBFB834853EDEA5773C64
:10575000051F3F3D9D3D6CBCE4AA8FBD4ACDF4BC06
:10576000367230BEB7D7BA3CC5ADC5BDEA90853CF0
:10577000B506023CC0074DBBD013383C40070BBCFC
:1057800081C623BD9AF022BC77E7DB3CC80F853B7E
:10579000E26C973C2835C6BBDC0DF33B989E7C3C05
:1057A000E0E987BB8AFAC8BC9AD1A7BC3E07CB3DCB
:1057B000D8ED95BD8FE6073D605D2E3D68A0113C9C
:1057C0004AFE3EBCCDCF51BD4ACF043DA4E600BF4A
:1057D000DBFA14BFA367D3BCC973093C7EB69F3CF8
:1057E000FF11C7BDF22C95BD4B43E1BDFBBD1A3D7A
:1057F00082A163BD57574F3B32D9C3BC3ECDE43D78
:105800008A38C3BDE872053DA00158BD802ED7BBC4
:1058100003FACA3A271D10BAD3464D3B57579DBBD2
:10582000F15C2A3C4CFD403B74269DB94ED4B23C01
:1058300023D19C3D16DF483DB0C1083D0F70233B8E
:10584000A61DC1BCF976883CFE39BCBBF2623D3E68
:10585000B9A5B33DD6BE393F6899C5BE6E8A813DB4
:10586000967EF9BCFF55563DBD453FBD788E7BBC4D
:1058700008EE903BB3A43D3DF6BF4F3C309E5F3DEC
:10588000C92F8F3DFDF2A73D767983BC391294B9BB
:1058900099100C3BE26F113B2A9457BAE7763CBB58
:1058A000F07A23BCC902EEBB08CA1FBDFABB843B19
:1058B00004BB2A3DFBF45DBDB289393D24F88B3C25
:1058C000BDA9E2BB76E5E4BDFA3F3CBD0E9B05BB3E
:1058D000E008B43CC5D8063DBBE481BADFC63EBF94
:1058E0008DE8C7BE17B6013D13F846BC3DFDBC3C74
:1058F0007977D9BC9912943CA5BCC63C1689A3BC47
:105900006067F8BC8A6F26BDFC19023CD6D8363ACF
:1059100061197D3A91F4723B2E6403BC8C035E3CAA
:10592000DA07403C3B8C333DB500CF3A4B29CABC2B
:1059300015F92C3E89DE783D177693BAE8DA273CD4
:105940004F69A23C8883D63D5071FEBC3E4F27BDB7
:1059500059A073BC633EF6B9B7FA2D3CBC76D83D6E
:10596000C4C4CE3DAB1E263D58BB4BBFE4755DBCE9
:1059700052411F3CC113753DE0213CBBCB87A13C8C
:1059800071B5123D6520163DA776C03C9713A5BAA8
:105990003FEF6ABB689B013C50504C3C7B5DAC3B8D
:1059A0000CED503BE81E05BC9CDAE3BC0AD6593C22
:1059B000313DE33C6807B1BCF756453B47D7E63C71
:1059C000009417BABFED133CF068A6BD6E72B2BC6E
:1059D00081A1B03DA33D23BE98C2563D96C6873DEA
:1059E000FCDB1D3C8D29F0BCCEA7A5BD12303C3F91
:1059F0001CDFB8BE3F5A963C13DAE43CE638353D2E
:105A0000676CCC3DC1AFD03D5D645D3D0C0ADEBB33
:105A1000C2E8873D13EA01B995131A3DDD35053C0F
:105A200005EE47BA84397D3CCA9E4BBC480623BC70
:105A30008A88BE3C7E1C233B54BCEBBC7804E83B0C
:105A4000BB48A93AF612C43CCE9918BC02CA27BD7D
:105A500000826D3B759E54BDFAE9E7BD256E153D8C
:105A6000CD49233D6ED0593D302A0F3D119A1ABEC3
:105A70003DC9283EFB930F3EB8F8663FF7C86CBDA2
:105A8000BB46973DAB521A3DA565963D89CA6E3C13
:105A90005E05003CEDA40ABD91D09E3C1CD3373C72
:105AA000A4B36C3CEAC3143D0E387CBCC0CD2BBD06
:105AB000EDA40C3D822D31BC7ED408BD32DB16BB7B
:105AC0000738CF3C4B215BBB9B0CF2BC8E11A1BBBA
:105AD0003B67ADBC6250FABC8245B33C59BFBF3D89
